{
	"data": {
		"bytecode": {
			"linkReferences": {},
			"object": "60806040523480156200001157600080fd5b5060405162002200380380620022008339818101604052810190620000379190620003f4565b336000806101000a81548173ffffffffffffffffffffffffffffffffffffffff021916908373ffffffffffffffffffffffffffffffffffffffff1602179055508060018190555080426200008c919062000489565b60028190555060006001905060005b8351811015620001b5576003848281518110620000bd57620000bc620004e6565b5b602002602001015190806001815401808255809150506001900390600052602060002001600090919091909150556007600067ffffffffffffffff8111156200010b576200010a6200025a565b5b6040519080825280602002602001820160405280156200013a5781602001602082028036833780820191505090505b5090806001815401808255809150506001900390600052602060002001600090919091909150908051906020019062000175929190620001bf565b5060048290806001815401808255809150506001900390600052602060002001600090919091909150558080620001ac9062000515565b9150506200009b565b5050505062000563565b828054828255906000526020600020908101928215620001fe579160200282015b82811115620001fd578251825591602001919060010190620001e0565b5b5090506200020d919062000211565b5090565b5b808211156200022c57600081600090555060010162000212565b5090565b6000604051905090565b600080fd5b600080fd5b600080fd5b6000601f19601f8301169050919050565b7f4e487b7100000000000000000000000000000000000000000000000000000000600052604160045260246000fd5b620002948262000249565b810181811067ffffffffffffffff82111715620002b657620002b56200025a565b5b80604052505050565b6000620002cb62000230565b9050620002d9828262000289565b919050565b600067ffffffffffffffff821115620002fc57620002fb6200025a565b5b602082029050602081019050919050565b600080fd5b6000819050919050565b620003278162000312565b81146200033357600080fd5b50565b60008151905062000347816200031c565b92915050565b6000620003646200035e84620002de565b620002bf565b905080838252602082019050602084028301858111156200038a57620003896200030d565b5b835b81811015620003b75780620003a2888262000336565b8452602084019350506020810190506200038c565b5050509392505050565b600082601f830112620003d957620003d862000244565b5b8151620003eb8482602086016200034d565b91505092915050565b600080604083850312156200040e576200040d6200023a565b5b600083015167ffffffffffffffff8111156200042f576200042e6200023f565b5b6200043d85828601620003c1565b9250506020620004508582860162000336565b9150509250929050565b7f4e487b7100000000000000000000000000000000000000000000000000000000600052601160045260246000fd5b6000620004968262000312565b9150620004a38362000312565b9250827fffffffffffffffffffffffffffffffffffffffffffffffffffffffffffffffff03821115620004db57620004da6200045a565b5b828201905092915050565b7f4e487b7100000000000000000000000000000000000000000000000000000000600052603260045260246000fd5b6000620005228262000312565b91507fffffffffffffffffffffffffffffffffffffffffffffffffffffffffffffffff8214156200055857620005576200045a565b5b600182019050919050565b611c8d80620005736000396000f3fe60806040526004361061007b5760003560e01c80639314f3a51161004e5780639314f3a5146101535780639692b06214610190578063a0f2f71f146101a7578063a91f6b48146101d05761007b565b806314aebade146100805780632ad04a62146100bd57806332912553146100fa57806369f0e05f14610116575b600080fd5b34801561008c57600080fd5b506100a760048036038101906100a2919061109f565b61020d565b6040516100b491906110db565b60405180910390f35b3480156100c957600080fd5b506100e460048036038101906100df91906110f6565b610231565b6040516100f191906110db565b60405180910390f35b610114600480360381019061010f9190611370565b61026e565b005b34801561012257600080fd5b5061013d6004803603810190610138919061109f565b610652565b60405161014a91906110db565b60405180910390f35b34801561015f57600080fd5b5061017a600480360381019061017591906110f6565b610676565b60405161018791906110db565b60405180910390f35b34801561019c57600080fd5b506101a561069b565b005b3480156101b357600080fd5b506101ce60048036038101906101c991906113cc565b610ae4565b005b3480156101dc57600080fd5b506101f760048036038101906101f29190611428565b610e8a565b60405161020491906110db565b60405180910390f35b6004818154811061021d57600080fd5b906000526020600020016000915090505481565b6007828154811061024157600080fd5b90600052602060002001818154811061025957600080fd5b90600052602060002001600091509150505481565b813410156102b1576040517f08c379a00000000000000000000000000000000000000000000000000000000081526004016102a8906114fe565b60405180910390fd5b600060058054905090506005839080600181540180825580915050600190039060005260206000200160009091909190915055336009600083815260200190815260200160002060006101000a81548173ffffffffffffffffffffffffffffffffffffffff021916908373ffffffffffffffffffffffffffffffffffffffff160217905550600882908060018154018082558091505060019003906000526020600020016000909190919091509080519060200190610371929190610ee0565b506000805b8351811015610433578381815181106103925761039161151e565b5b60200260200101516001815181106103ad576103ac61151e565b5b602002602001015160048583815181106103ca576103c961151e565b5b60200260200101516000815181106103e5576103e461151e565b5b6020026020010151815481106103fe576103fd61151e565b5b9060005260206000200154610413919061157c565b8261041e91906115d6565b9150808061042b9061162c565b915050610376565b506000805b84518110156106125760008582815181106104565761045561151e565b5b60200260200101516000815181106104715761047061151e565b5b6020026020010151905060008683815181106104905761048f61151e565b5b60200260200101516001815181106104ab576104aa61151e565b5b60200260200101519050600782815481106104c9576104c861151e565b5b9060005260206000200186908060018154018082558091505060019003906000526020600020016000909190919091505560006001885161050a9190611675565b84141561052457848961051d9190611675565b9050610575565b85828a6004868154811061053b5761053a61151e565b5b9060005260206000200154610550919061157c565b61055a919061157c565b61056491906116d8565b9050808561057291906115d6565b94505b8060066000858152602001908152602001600020600089815260200190815260200160002081905550600383815481106105b2576105b161151e565b5b9060005260206000200154816105c891906116d8565b600484815481106105dc576105db61151e565b5b9060005260206000200160008282546105f591906115d6565b92505081905550505050808061060a9061162c565b915050610438565b507ff10976e9592d31e4fbd47d858e7642bc8fcab1f0b1ef290e405c8f108cc5624160046040516106439190611817565b60405180910390a15050505050565b6005818154811061066257600080fd5b906000526020600020016000915090505481565b6006602052816000526040600020602052806000526040600020600091509150505481565b60008054906101000a900473ffffffffffffffffffffffffffffffffffffffff1673ffffffffffffffffffffffffffffffffffffffff163373ffffffffffffffffffffffffffffffffffffffff1614610729576040517f08c379a000000000000000000000000000000000000000000000000000000000815260040161072090611885565b60405180910390fd5b42600254111561076e576040517f08c379a000000000000000000000000000000000000000000000000000000000815260040161076590611917565b60405180910390fd5b6000600380549050905060008167ffffffffffffffff8111156107945761079361114c565b5b6040519080825280602002602001820160405280156107c757816020015b60608152602001906001900390816107b25790505b50905060008267ffffffffffffffff8111156107e6576107e561114c565b5b60405190808252806020026020018201604052801561081957816020015b60608152602001906001900390816108045790505b50905060005b83811015610a275760006007828154811061083d5761083c61151e565b5b9060005260206000200180549050905060008167ffffffffffffffff8111156108695761086861114c565b5b6040519080825280602002602001820160405280156108975781602001602082028036833780820191505090505b50905060008267ffffffffffffffff8111156108b6576108b561114c565b5b6040519080825280602002602001820160405280156108e45781602001602082028036833780820191505090505b50905060005b838110156109d2576000600786815481106109085761090761151e565b5b9060005260206000200182815481106109245761092361151e565b5b90600052602060002001549050600486815481106109455761094461151e565b5b90600052602060002001546006600088815260200190815260200160002060008381526020019081526020016000205461097f91906116d8565b8483815181106109925761099161151e565b5b602002602001018181525050808383815181106109b2576109b161151e565b5b6020026020010181815250505080806109ca9061162c565b9150506108ea565b50818685815181106109e7576109e661151e565b5b602002602001018190525080858581518110610a0657610a0561151e565b5b60200260200101819052505050508080610a1f9061162c565b91505061081f565b507ffc34ab54eaf4e470d6e598e6c2fc84089ec3b6c96e2757e965b42917d6cc84fa8282604051610a59929190611a90565b60405180910390a160015442610a6f91906115d6565b60028190555060056000610a839190610f40565b60086000610a919190610f61565b60005b600380549050811015610ade5760078181548110610ab557610ab461151e565b5b906000526020600020016000610acb9190610f40565b8080610ad69061162c565b915050610a94565b50505050565b3373ffffffffffffffffffffffffffffffffffffffff166009600084815260200190815260200160002060009054906101000a900473ffffffffffffffffffffffffffffffffffffffff1673ffffffffffffffffffffffffffffffffffffffff1614610b85576040517f08c379a0000000000000000000000000000000000000000000000000000000008152600401610b7c90611b13565b60405180910390fd5b6000805b8251811015610bcd57828181518110610ba557610ba461151e565b5b602002602001015182610bb891906115d6565b91508080610bc59061162c565b915050610b89565b5060058381548110610be257610be161151e565b5b9060005260206000200154811115610c2f576040517f08c379a0000000000000000000000000000000000000000000000000000000008152600401610c2690611ba5565b60405180910390fd5b60088381548110610c4357610c4261151e565b5b9060005260206000200180549050825114610c93576040517f08c379a0000000000000000000000000000000000000000000000000000000008152600401610c8a90611c37565b60405180910390fd5b60005b8251811015610e4c57600060088581548110610cb557610cb461151e565b5b906000526020600020018281548110610cd157610cd061151e565b5b90600052602060002001600081548110610cee57610ced61151e565b5b9060005260206000200154905060038181548110610d0f57610d0e61151e565b5b9060005260206000200154848381518110610d2d57610d2c61151e565b5b6020026020010151610d3f91906116d8565b60048281548110610d5357610d5261151e565b5b906000526020600020016000828254610d6c91906115d6565b9250508190555060038181548110610d8757610d8661151e565b5b906000526020600020015460066000838152602001908152602001600020600087815260200190815260200160002054610dc191906116d8565b60048281548110610dd557610dd461151e565b5b906000526020600020016000828254610dee9190611675565b92505081905550838281518110610e0857610e0761151e565b5b602002602001015160066000838152602001908152602001600020600087815260200190815260200160002081905550508080610e449061162c565b915050610c96565b507ff10976e9592d31e4fbd47d858e7642bc8fcab1f0b1ef290e405c8f108cc562416004604051610e7d9190611817565b60405180910390a1505050565b60088381548110610e9a57600080fd5b906000526020600020018281548110610eb257600080fd5b906000526020600020018181548110610eca57600080fd5b9060005260206000200160009250925050505481565b828054828255906000526020600020908101928215610f2f579160200282015b82811115610f2e578251829080519060200190610f1e929190610f82565b5091602001919060010190610f00565b5b509050610f3c9190610fcf565b5090565b5080546000825590600052602060002090810190610f5e9190610ff3565b50565b5080546000825590600052602060002090810190610f7f9190611010565b50565b828054828255906000526020600020908101928215610fbe579160200282015b82811115610fbd578251825591602001919060010190610fa2565b5b509050610fcb9190610ff3565b5090565b5b80821115610fef5760008181610fe69190610f40565b50600101610fd0565b5090565b5b8082111561100c576000816000905550600101610ff4565b5090565b5b8082111561103057600081816110279190611034565b50600101611011565b5090565b50805460008255906000526020600020908101906110529190610fcf565b50565b6000604051905090565b600080fd5b600080fd5b6000819050919050565b61107c81611069565b811461108757600080fd5b50565b60008135905061109981611073565b92915050565b6000602082840312156110b5576110b461105f565b5b60006110c38482850161108a565b91505092915050565b6110d581611069565b82525050565b60006020820190506110f060008301846110cc565b92915050565b6000806040838503121561110d5761110c61105f565b5b600061111b8582860161108a565b925050602061112c8582860161108a565b9150509250929050565b600080fd5b6000601f19601f8301169050919050565b7f4e487b7100000000000000000000000000000000000000000000000000000000600052604160045260246000fd5b6111848261113b565b810181811067ffffffffffffffff821117156111a3576111a261114c565b5b80604052505050565b60006111b6611055565b90506111c2828261117b565b919050565b600067ffffffffffffffff8211156111e2576111e161114c565b5b602082029050602081019050919050565b600080fd5b600067ffffffffffffffff8211156112135761121261114c565b5b602082029050602081019050919050565b6000611237611232846111f8565b6111ac565b9050808382526020820190506020840283018581111561125a576112596111f3565b5b835b81811015611283578061126f888261108a565b84526020840193505060208101905061125c565b5050509392505050565b600082601f8301126112a2576112a1611136565b5b81356112b2848260208601611224565b91505092915050565b60006112ce6112c9846111c7565b6111ac565b905080838252602082019050602084028301858111156112f1576112f06111f3565b5b835b8181101561133857803567ffffffffffffffff81111561131657611315611136565b5b808601611323898261128d565b855260208501945050506020810190506112f3565b5050509392505050565b600082601f83011261135757611356611136565b5b81356113678482602086016112bb565b91505092915050565b600080604083850312156113875761138661105f565b5b60006113958582860161108a565b925050602083013567ffffffffffffffff8111156113b6576113b5611064565b5b6113c285828601611342565b9150509250929050565b600080604083850312156113e3576113e261105f565b5b60006113f18582860161108a565b925050602083013567ffffffffffffffff81111561141257611411611064565b5b61141e8582860161128d565b9150509250929050565b6000806000606084860312156114415761144061105f565b5b600061144f8682870161108a565b93505060206114608682870161108a565b92505060406114718682870161108a565b9150509250925092565b600082825260208201905092915050565b7f45746865722073656e74206d757374206265206174206c6561737420796f757260008201527f2062756467657400000000000000000000000000000000000000000000000000602082015250565b60006114e860278361147b565b91506114f38261148c565b604082019050919050565b60006020820190508181036000830152611517816114db565b9050919050565b7f4e487b7100000000000000000000000000000000000000000000000000000000600052603260045260246000fd5b7f4e487b7100000000000000000000000000000000000000000000000000000000600052601160045260246000fd5b600061158782611069565b915061159283611069565b9250817fffffffffffffffffffffffffffffffffffffffffffffffffffffffffffffffff04831182151516156115cb576115ca61154d565b5b828202905092915050565b60006115e182611069565b91506115ec83611069565b9250827fffffffffffffffffffffffffffffffffffffffffffffffffffffffffffffffff038211156116215761162061154d565b5b828201905092915050565b600061163782611069565b91507fffffffffffffffffffffffffffffffffffffffffffffffffffffffffffffffff82141561166a5761166961154d565b5b600182019050919050565b600061168082611069565b915061168b83611069565b92508282101561169e5761169d61154d565b5b828203905092915050565b7f4e487b7100000000000000000000000000000000000000000000000000000000600052601260045260246000fd5b60006116e382611069565b91506116ee83611069565b9250826116fe576116fd6116a9565b5b828204905092915050565b600081549050919050565b600082825260208201905092915050565b60008190508160005260206000209050919050565b61174381611069565b82525050565b6000611755838361173a565b60208301905092915050565b60008160001c9050919050565b6000819050919050565b600061178b61178683611761565b61176e565b9050919050565b600061179e8254611778565b9050919050565b6000600182019050919050565b60006117bd82611709565b6117c78185611714565b93506117d283611725565b8060005b8381101561180a576117e782611792565b6117f18882611749565b97506117fc836117a5565b9250506001810190506117d6565b5085935050505092915050565b6000602082019050818103600083015261183181846117b2565b905092915050565b7f4f6e6c79206f776e65722063616e207465726d696e61746520726f756e640000600082015250565b600061186f601e8361147b565b915061187a82611839565b602082019050919050565b6000602082019050818103600083015261189e81611862565b9050919050565b7f54696d6520746f207465726d696e6174652063757272656e7420726f756e642060008201527f686173206e6f74206265656e2072656163686564000000000000000000000000602082015250565b600061190160348361147b565b915061190c826118a5565b604082019050919050565b60006020820190508181036000830152611930816118f4565b9050919050565b600081519050919050565b600082825260208201905092915050565b6000819050602082019050919050565b600081519050919050565b600082825260208201905092915050565b6000819050602082019050919050565b6000602082019050919050565b60006119a782611963565b6119b1818561196e565b93506119bc8361197f565b8060005b838110156119ed5781516119d48882611749565b97506119df8361198f565b9250506001810190506119c0565b5085935050505092915050565b6000611a06838361199c565b905092915050565b6000602082019050919050565b6000611a2682611937565b611a308185611942565b935083602082028501611a4285611953565b8060005b85811015611a7e5784840389528151611a5f85826119fa565b9450611a6a83611a0e565b925060208a01995050600181019050611a46565b50829750879550505050505092915050565b60006040820190508181036000830152611aaa8185611a1b565b90508181036020830152611abe8184611a1b565b90509392505050565b7f496e76616c696420757365720000000000000000000000000000000000000000600082015250565b6000611afd600c8361147b565b9150611b0882611ac7565b602082019050919050565b60006020820190508181036000830152611b2c81611af0565b9050919050565b7f546f74616c206275646765742063616e6e6f74206265206d6f7265207468616e60008201527f206f726967696e616c2062756467657400000000000000000000000000000000602082015250565b6000611b8f60308361147b565b9150611b9a82611b33565b604082019050919050565b60006020820190508181036000830152611bbe81611b82565b9050919050565b7f496e76616c6964206e756d626572206f66207265736f757263657320746f207560008201527f7064617465000000000000000000000000000000000000000000000000000000602082015250565b6000611c2160258361147b565b9150611c2c82611bc5565b604082019050919050565b60006020820190508181036000830152611c5081611c14565b905091905056fea2646970667358221220471a04e9061527cefa8206cb9f6ec177b22a1dd8cc596fb1566ac8d8c96f371664736f6c63430008090033",
			"opcodes": "PUSH1 0x80 PUSH1 0x40 MSTORE CALLVALUE DUP1 ISZERO PUSH3 0x11 JUMPI PUSH1 0x0 DUP1 REVERT JUMPDEST POP PUSH1 0x40 MLOAD PUSH3 0x2200 CODESIZE SUB DUP1 PUSH3 0x2200 DUP4 CODECOPY DUP2 DUP2 ADD PUSH1 0x40 MSTORE DUP2 ADD SWAP1 PUSH3 0x37 SWAP2 SWAP1 PUSH3 0x3F4 JUMP JUMPDEST CALLER PUSH1 0x0 DUP1 PUSH2 0x100 EXP DUP2 SLOAD DUP2 PUSH20 0xFFFFFFFFFFFFFFFFFFFFFFFFFFFFFFFFFFFFFFFF MUL NOT AND SWAP1 DUP4 PUSH20 0xFFFFFFFFFFFFFFFFFFFFFFFFFFFFFFFFFFFFFFFF AND MUL OR SWAP1 SSTORE POP DUP1 PUSH1 0x1 DUP2 SWAP1 SSTORE POP DUP1 TIMESTAMP PUSH3 0x8C SWAP2 SWAP1 PUSH3 0x489 JUMP JUMPDEST PUSH1 0x2 DUP2 SWAP1 SSTORE POP PUSH1 0x0 PUSH1 0x1 SWAP1 POP PUSH1 0x0 JUMPDEST DUP4 MLOAD DUP2 LT ISZERO PUSH3 0x1B5 JUMPI PUSH1 0x3 DUP5 DUP3 DUP2 MLOAD DUP2 LT PUSH3 0xBD JUMPI PUSH3 0xBC PUSH3 0x4E6 JUMP JUMPDEST JUMPDEST PUSH1 0x20 MUL PUSH1 0x20 ADD ADD MLOAD SWAP1 DUP1 PUSH1 0x1 DUP2 SLOAD ADD DUP1 DUP3 SSTORE DUP1 SWAP2 POP POP PUSH1 0x1 SWAP1 SUB SWAP1 PUSH1 0x0 MSTORE PUSH1 0x20 PUSH1 0x0 KECCAK256 ADD PUSH1 0x0 SWAP1 SWAP2 SWAP1 SWAP2 SWAP1 SWAP2 POP SSTORE PUSH1 0x7 PUSH1 0x0 PUSH8 0xFFFFFFFFFFFFFFFF DUP2 GT ISZERO PUSH3 0x10B JUMPI PUSH3 0x10A PUSH3 0x25A JUMP JUMPDEST JUMPDEST PUSH1 0x40 MLOAD SWAP1 DUP1 DUP3 MSTORE DUP1 PUSH1 0x20 MUL PUSH1 0x20 ADD DUP3 ADD PUSH1 0x40 MSTORE DUP1 ISZERO PUSH3 0x13A JUMPI DUP2 PUSH1 0x20 ADD PUSH1 0x20 DUP3 MUL DUP1 CALLDATASIZE DUP4 CALLDATACOPY DUP1 DUP3 ADD SWAP2 POP POP SWAP1 POP JUMPDEST POP SWAP1 DUP1 PUSH1 0x1 DUP2 SLOAD ADD DUP1 DUP3 SSTORE DUP1 SWAP2 POP POP PUSH1 0x1 SWAP1 SUB SWAP1 PUSH1 0x0 MSTORE PUSH1 0x20 PUSH1 0x0 KECCAK256 ADD PUSH1 0x0 SWAP1 SWAP2 SWAP1 SWAP2 SWAP1 SWAP2 POP SWAP1 DUP1 MLOAD SWAP1 PUSH1 0x20 ADD SWAP1 PUSH3 0x175 SWAP3 SWAP2 SWAP1 PUSH3 0x1BF JUMP JUMPDEST POP PUSH1 0x4 DUP3 SWAP1 DUP1 PUSH1 0x1 DUP2 SLOAD ADD DUP1 DUP3 SSTORE DUP1 SWAP2 POP POP PUSH1 0x1 SWAP1 SUB SWAP1 PUSH1 0x0 MSTORE PUSH1 0x20 PUSH1 0x0 KECCAK256 ADD PUSH1 0x0 SWAP1 SWAP2 SWAP1 SWAP2 SWAP1 SWAP2 POP SSTORE DUP1 DUP1 PUSH3 0x1AC SWAP1 PUSH3 0x515 JUMP JUMPDEST SWAP2 POP POP PUSH3 0x9B JUMP JUMPDEST POP POP POP POP PUSH3 0x563 JUMP JUMPDEST DUP3 DUP1 SLOAD DUP3 DUP3 SSTORE SWAP1 PUSH1 0x0 MSTORE PUSH1 0x20 PUSH1 0x0 KECCAK256 SWAP1 DUP2 ADD SWAP3 DUP3 ISZERO PUSH3 0x1FE JUMPI SWAP2 PUSH1 0x20 MUL DUP3 ADD JUMPDEST DUP3 DUP2 GT ISZERO PUSH3 0x1FD JUMPI DUP3 MLOAD DUP3 SSTORE SWAP2 PUSH1 0x20 ADD SWAP2 SWAP1 PUSH1 0x1 ADD SWAP1 PUSH3 0x1E0 JUMP JUMPDEST JUMPDEST POP SWAP1 POP PUSH3 0x20D SWAP2 SWAP1 PUSH3 0x211 JUMP JUMPDEST POP SWAP1 JUMP JUMPDEST JUMPDEST DUP1 DUP3 GT ISZERO PUSH3 0x22C JUMPI PUSH1 0x0 DUP2 PUSH1 0x0 SWAP1 SSTORE POP PUSH1 0x1 ADD PUSH3 0x212 JUMP JUMPDEST POP SWAP1 JUMP JUMPDEST PUSH1 0x0 PUSH1 0x40 MLOAD SWAP1 POP SWAP1 JUMP JUMPDEST PUSH1 0x0 DUP1 REVERT JUMPDEST PUSH1 0x0 DUP1 REVERT JUMPDEST PUSH1 0x0 DUP1 REVERT JUMPDEST PUSH1 0x0 PUSH1 0x1F NOT PUSH1 0x1F DUP4 ADD AND SWAP1 POP SWAP2 SWAP1 POP JUMP JUMPDEST PUSH32 0x4E487B7100000000000000000000000000000000000000000000000000000000 PUSH1 0x0 MSTORE PUSH1 0x41 PUSH1 0x4 MSTORE PUSH1 0x24 PUSH1 0x0 REVERT JUMPDEST PUSH3 0x294 DUP3 PUSH3 0x249 JUMP JUMPDEST DUP2 ADD DUP2 DUP2 LT PUSH8 0xFFFFFFFFFFFFFFFF DUP3 GT OR ISZERO PUSH3 0x2B6 JUMPI PUSH3 0x2B5 PUSH3 0x25A JUMP JUMPDEST JUMPDEST DUP1 PUSH1 0x40 MSTORE POP POP POP JUMP JUMPDEST PUSH1 0x0 PUSH3 0x2CB PUSH3 0x230 JUMP JUMPDEST SWAP1 POP PUSH3 0x2D9 DUP3 DUP3 PUSH3 0x289 JUMP JUMPDEST SWAP2 SWAP1 POP JUMP JUMPDEST PUSH1 0x0 PUSH8 0xFFFFFFFFFFFFFFFF DUP3 GT ISZERO PUSH3 0x2FC JUMPI PUSH3 0x2FB PUSH3 0x25A JUMP JUMPDEST JUMPDEST PUSH1 0x20 DUP3 MUL SWAP1 POP PUSH1 0x20 DUP2 ADD SWAP1 POP SWAP2 SWAP1 POP JUMP JUMPDEST PUSH1 0x0 DUP1 REVERT JUMPDEST PUSH1 0x0 DUP2 SWAP1 POP SWAP2 SWAP1 POP JUMP JUMPDEST PUSH3 0x327 DUP2 PUSH3 0x312 JUMP JUMPDEST DUP2 EQ PUSH3 0x333 JUMPI PUSH1 0x0 DUP1 REVERT JUMPDEST POP JUMP JUMPDEST PUSH1 0x0 DUP2 MLOAD SWAP1 POP PUSH3 0x347 DUP2 PUSH3 0x31C JUMP JUMPDEST SWAP3 SWAP2 POP POP JUMP JUMPDEST PUSH1 0x0 PUSH3 0x364 PUSH3 0x35E DUP5 PUSH3 0x2DE JUMP JUMPDEST PUSH3 0x2BF JUMP JUMPDEST SWAP1 POP DUP1 DUP4 DUP3 MSTORE PUSH1 0x20 DUP3 ADD SWAP1 POP PUSH1 0x20 DUP5 MUL DUP4 ADD DUP6 DUP2 GT ISZERO PUSH3 0x38A JUMPI PUSH3 0x389 PUSH3 0x30D JUMP JUMPDEST JUMPDEST DUP4 JUMPDEST DUP2 DUP2 LT ISZERO PUSH3 0x3B7 JUMPI DUP1 PUSH3 0x3A2 DUP9 DUP3 PUSH3 0x336 JUMP JUMPDEST DUP5 MSTORE PUSH1 0x20 DUP5 ADD SWAP4 POP POP PUSH1 0x20 DUP2 ADD SWAP1 POP PUSH3 0x38C JUMP JUMPDEST POP POP POP SWAP4 SWAP3 POP POP POP JUMP JUMPDEST PUSH1 0x0 DUP3 PUSH1 0x1F DUP4 ADD SLT PUSH3 0x3D9 JUMPI PUSH3 0x3D8 PUSH3 0x244 JUMP JUMPDEST JUMPDEST DUP2 MLOAD PUSH3 0x3EB DUP5 DUP3 PUSH1 0x20 DUP7 ADD PUSH3 0x34D JUMP JUMPDEST SWAP2 POP POP SWAP3 SWAP2 POP POP JUMP JUMPDEST PUSH1 0x0 DUP1 PUSH1 0x40 DUP4 DUP6 SUB SLT ISZERO PUSH3 0x40E JUMPI PUSH3 0x40D PUSH3 0x23A JUMP JUMPDEST JUMPDEST PUSH1 0x0 DUP4 ADD MLOAD PUSH8 0xFFFFFFFFFFFFFFFF DUP2 GT ISZERO PUSH3 0x42F JUMPI PUSH3 0x42E PUSH3 0x23F JUMP JUMPDEST JUMPDEST PUSH3 0x43D DUP6 DUP3 DUP7 ADD PUSH3 0x3C1 JUMP JUMPDEST SWAP3 POP POP PUSH1 0x20 PUSH3 0x450 DUP6 DUP3 DUP7 ADD PUSH3 0x336 JUMP JUMPDEST SWAP2 POP POP SWAP3 POP SWAP3 SWAP1 POP JUMP JUMPDEST PUSH32 0x4E487B7100000000000000000000000000000000000000000000000000000000 PUSH1 0x0 MSTORE PUSH1 0x11 PUSH1 0x4 MSTORE PUSH1 0x24 PUSH1 0x0 REVERT JUMPDEST PUSH1 0x0 PUSH3 0x496 DUP3 PUSH3 0x312 JUMP JUMPDEST SWAP2 POP PUSH3 0x4A3 DUP4 PUSH3 0x312 JUMP JUMPDEST SWAP3 POP DUP3 PUSH32 0xFFFFFFFFFFFFFFFFFFFFFFFFFFFFFFFFFFFFFFFFFFFFFFFFFFFFFFFFFFFFFFFF SUB DUP3 GT ISZERO PUSH3 0x4DB JUMPI PUSH3 0x4DA PUSH3 0x45A JUMP JUMPDEST JUMPDEST DUP3 DUP3 ADD SWAP1 POP SWAP3 SWAP2 POP POP JUMP JUMPDEST PUSH32 0x4E487B7100000000000000000000000000000000000000000000000000000000 PUSH1 0x0 MSTORE PUSH1 0x32 PUSH1 0x4 MSTORE PUSH1 0x24 PUSH1 0x0 REVERT JUMPDEST PUSH1 0x0 PUSH3 0x522 DUP3 PUSH3 0x312 JUMP JUMPDEST SWAP2 POP PUSH32 0xFFFFFFFFFFFFFFFFFFFFFFFFFFFFFFFFFFFFFFFFFFFFFFFFFFFFFFFFFFFFFFFF DUP3 EQ ISZERO PUSH3 0x558 JUMPI PUSH3 0x557 PUSH3 0x45A JUMP JUMPDEST JUMPDEST PUSH1 0x1 DUP3 ADD SWAP1 POP SWAP2 SWAP1 POP JUMP JUMPDEST PUSH2 0x1C8D DUP1 PUSH3 0x573 PUSH1 0x0 CODECOPY PUSH1 0x0 RETURN INVALID PUSH1 0x80 PUSH1 0x40 MSTORE PUSH1 0x4 CALLDATASIZE LT PUSH2 0x7B JUMPI PUSH1 0x0 CALLDATALOAD PUSH1 0xE0 SHR DUP1 PUSH4 0x9314F3A5 GT PUSH2 0x4E JUMPI DUP1 PUSH4 0x9314F3A5 EQ PUSH2 0x153 JUMPI DUP1 PUSH4 0x9692B062 EQ PUSH2 0x190 JUMPI DUP1 PUSH4 0xA0F2F71F EQ PUSH2 0x1A7 JUMPI DUP1 PUSH4 0xA91F6B48 EQ PUSH2 0x1D0 JUMPI PUSH2 0x7B JUMP JUMPDEST DUP1 PUSH4 0x14AEBADE EQ PUSH2 0x80 JUMPI DUP1 PUSH4 0x2AD04A62 EQ PUSH2 0xBD JUMPI DUP1 PUSH4 0x32912553 EQ PUSH2 0xFA JUMPI DUP1 PUSH4 0x69F0E05F EQ PUSH2 0x116 JUMPI JUMPDEST PUSH1 0x0 DUP1 REVERT JUMPDEST CALLVALUE DUP1 ISZERO PUSH2 0x8C JUMPI PUSH1 0x0 DUP1 REVERT JUMPDEST POP PUSH2 0xA7 PUSH1 0x4 DUP1 CALLDATASIZE SUB DUP2 ADD SWAP1 PUSH2 0xA2 SWAP2 SWAP1 PUSH2 0x109F JUMP JUMPDEST PUSH2 0x20D JUMP JUMPDEST PUSH1 0x40 MLOAD PUSH2 0xB4 SWAP2 SWAP1 PUSH2 0x10DB JUMP JUMPDEST PUSH1 0x40 MLOAD DUP1 SWAP2 SUB SWAP1 RETURN JUMPDEST CALLVALUE DUP1 ISZERO PUSH2 0xC9 JUMPI PUSH1 0x0 DUP1 REVERT JUMPDEST POP PUSH2 0xE4 PUSH1 0x4 DUP1 CALLDATASIZE SUB DUP2 ADD SWAP1 PUSH2 0xDF SWAP2 SWAP1 PUSH2 0x10F6 JUMP JUMPDEST PUSH2 0x231 JUMP JUMPDEST PUSH1 0x40 MLOAD PUSH2 0xF1 SWAP2 SWAP1 PUSH2 0x10DB JUMP JUMPDEST PUSH1 0x40 MLOAD DUP1 SWAP2 SUB SWAP1 RETURN JUMPDEST PUSH2 0x114 PUSH1 0x4 DUP1 CALLDATASIZE SUB DUP2 ADD SWAP1 PUSH2 0x10F SWAP2 SWAP1 PUSH2 0x1370 JUMP JUMPDEST PUSH2 0x26E JUMP JUMPDEST STOP JUMPDEST CALLVALUE DUP1 ISZERO PUSH2 0x122 JUMPI PUSH1 0x0 DUP1 REVERT JUMPDEST POP PUSH2 0x13D PUSH1 0x4 DUP1 CALLDATASIZE SUB DUP2 ADD SWAP1 PUSH2 0x138 SWAP2 SWAP1 PUSH2 0x109F JUMP JUMPDEST PUSH2 0x652 JUMP JUMPDEST PUSH1 0x40 MLOAD PUSH2 0x14A SWAP2 SWAP1 PUSH2 0x10DB JUMP JUMPDEST PUSH1 0x40 MLOAD DUP1 SWAP2 SUB SWAP1 RETURN JUMPDEST CALLVALUE DUP1 ISZERO PUSH2 0x15F JUMPI PUSH1 0x0 DUP1 REVERT JUMPDEST POP PUSH2 0x17A PUSH1 0x4 DUP1 CALLDATASIZE SUB DUP2 ADD SWAP1 PUSH2 0x175 SWAP2 SWAP1 PUSH2 0x10F6 JUMP JUMPDEST PUSH2 0x676 JUMP JUMPDEST PUSH1 0x40 MLOAD PUSH2 0x187 SWAP2 SWAP1 PUSH2 0x10DB JUMP JUMPDEST PUSH1 0x40 MLOAD DUP1 SWAP2 SUB SWAP1 RETURN JUMPDEST CALLVALUE DUP1 ISZERO PUSH2 0x19C JUMPI PUSH1 0x0 DUP1 REVERT JUMPDEST POP PUSH2 0x1A5 PUSH2 0x69B JUMP JUMPDEST STOP JUMPDEST CALLVALUE DUP1 ISZERO PUSH2 0x1B3 JUMPI PUSH1 0x0 DUP1 REVERT JUMPDEST POP PUSH2 0x1CE PUSH1 0x4 DUP1 CALLDATASIZE SUB DUP2 ADD SWAP1 PUSH2 0x1C9 SWAP2 SWAP1 PUSH2 0x13CC JUMP JUMPDEST PUSH2 0xAE4 JUMP JUMPDEST STOP JUMPDEST CALLVALUE DUP1 ISZERO PUSH2 0x1DC JUMPI PUSH1 0x0 DUP1 REVERT JUMPDEST POP PUSH2 0x1F7 PUSH1 0x4 DUP1 CALLDATASIZE SUB DUP2 ADD SWAP1 PUSH2 0x1F2 SWAP2 SWAP1 PUSH2 0x1428 JUMP JUMPDEST PUSH2 0xE8A JUMP JUMPDEST PUSH1 0x40 MLOAD PUSH2 0x204 SWAP2 SWAP1 PUSH2 0x10DB JUMP JUMPDEST PUSH1 0x40 MLOAD DUP1 SWAP2 SUB SWAP1 RETURN JUMPDEST PUSH1 0x4 DUP2 DUP2 SLOAD DUP2 LT PUSH2 0x21D JUMPI PUSH1 0x0 DUP1 REVERT JUMPDEST SWAP1 PUSH1 0x0 MSTORE PUSH1 0x20 PUSH1 0x0 KECCAK256 ADD PUSH1 0x0 SWAP2 POP SWAP1 POP SLOAD DUP2 JUMP JUMPDEST PUSH1 0x7 DUP3 DUP2 SLOAD DUP2 LT PUSH2 0x241 JUMPI PUSH1 0x0 DUP1 REVERT JUMPDEST SWAP1 PUSH1 0x0 MSTORE PUSH1 0x20 PUSH1 0x0 KECCAK256 ADD DUP2 DUP2 SLOAD DUP2 LT PUSH2 0x259 JUMPI PUSH1 0x0 DUP1 REVERT JUMPDEST SWAP1 PUSH1 0x0 MSTORE PUSH1 0x20 PUSH1 0x0 KECCAK256 ADD PUSH1 0x0 SWAP2 POP SWAP2 POP POP SLOAD DUP2 JUMP JUMPDEST DUP2 CALLVALUE LT ISZERO PUSH2 0x2B1 JUMPI PUSH1 0x40 MLOAD PUSH32 0x8C379A000000000000000000000000000000000000000000000000000000000 DUP2 MSTORE PUSH1 0x4 ADD PUSH2 0x2A8 SWAP1 PUSH2 0x14FE JUMP JUMPDEST PUSH1 0x40 MLOAD DUP1 SWAP2 SUB SWAP1 REVERT JUMPDEST PUSH1 0x0 PUSH1 0x5 DUP1 SLOAD SWAP1 POP SWAP1 POP PUSH1 0x5 DUP4 SWAP1 DUP1 PUSH1 0x1 DUP2 SLOAD ADD DUP1 DUP3 SSTORE DUP1 SWAP2 POP POP PUSH1 0x1 SWAP1 SUB SWAP1 PUSH1 0x0 MSTORE PUSH1 0x20 PUSH1 0x0 KECCAK256 ADD PUSH1 0x0 SWAP1 SWAP2 SWAP1 SWAP2 SWAP1 SWAP2 POP SSTORE CALLER PUSH1 0x9 PUSH1 0x0 DUP4 DUP2 MSTORE PUSH1 0x20 ADD SWAP1 DUP2 MSTORE PUSH1 0x20 ADD PUSH1 0x0 KECCAK256 PUSH1 0x0 PUSH2 0x100 EXP DUP2 SLOAD DUP2 PUSH20 0xFFFFFFFFFFFFFFFFFFFFFFFFFFFFFFFFFFFFFFFF MUL NOT AND SWAP1 DUP4 PUSH20 0xFFFFFFFFFFFFFFFFFFFFFFFFFFFFFFFFFFFFFFFF AND MUL OR SWAP1 SSTORE POP PUSH1 0x8 DUP3 SWAP1 DUP1 PUSH1 0x1 DUP2 SLOAD ADD DUP1 DUP3 SSTORE DUP1 SWAP2 POP POP PUSH1 0x1 SWAP1 SUB SWAP1 PUSH1 0x0 MSTORE PUSH1 0x20 PUSH1 0x0 KECCAK256 ADD PUSH1 0x0 SWAP1 SWAP2 SWAP1 SWAP2 SWAP1 SWAP2 POP SWAP1 DUP1 MLOAD SWAP1 PUSH1 0x20 ADD SWAP1 PUSH2 0x371 SWAP3 SWAP2 SWAP1 PUSH2 0xEE0 JUMP JUMPDEST POP PUSH1 0x0 DUP1 JUMPDEST DUP4 MLOAD DUP2 LT ISZERO PUSH2 0x433 JUMPI DUP4 DUP2 DUP2 MLOAD DUP2 LT PUSH2 0x392 JUMPI PUSH2 0x391 PUSH2 0x151E JUMP JUMPDEST JUMPDEST PUSH1 0x20 MUL PUSH1 0x20 ADD ADD MLOAD PUSH1 0x1 DUP2 MLOAD DUP2 LT PUSH2 0x3AD JUMPI PUSH2 0x3AC PUSH2 0x151E JUMP JUMPDEST JUMPDEST PUSH1 0x20 MUL PUSH1 0x20 ADD ADD MLOAD PUSH1 0x4 DUP6 DUP4 DUP2 MLOAD DUP2 LT PUSH2 0x3CA JUMPI PUSH2 0x3C9 PUSH2 0x151E JUMP JUMPDEST JUMPDEST PUSH1 0x20 MUL PUSH1 0x20 ADD ADD MLOAD PUSH1 0x0 DUP2 MLOAD DUP2 LT PUSH2 0x3E5 JUMPI PUSH2 0x3E4 PUSH2 0x151E JUMP JUMPDEST JUMPDEST PUSH1 0x20 MUL PUSH1 0x20 ADD ADD MLOAD DUP2 SLOAD DUP2 LT PUSH2 0x3FE JUMPI PUSH2 0x3FD PUSH2 0x151E JUMP JUMPDEST JUMPDEST SWAP1 PUSH1 0x0 MSTORE PUSH1 0x20 PUSH1 0x0 KECCAK256 ADD SLOAD PUSH2 0x413 SWAP2 SWAP1 PUSH2 0x157C JUMP JUMPDEST DUP3 PUSH2 0x41E SWAP2 SWAP1 PUSH2 0x15D6 JUMP JUMPDEST SWAP2 POP DUP1 DUP1 PUSH2 0x42B SWAP1 PUSH2 0x162C JUMP JUMPDEST SWAP2 POP POP PUSH2 0x376 JUMP JUMPDEST POP PUSH1 0x0 DUP1 JUMPDEST DUP5 MLOAD DUP2 LT ISZERO PUSH2 0x612 JUMPI PUSH1 0x0 DUP6 DUP3 DUP2 MLOAD DUP2 LT PUSH2 0x456 JUMPI PUSH2 0x455 PUSH2 0x151E JUMP JUMPDEST JUMPDEST PUSH1 0x20 MUL PUSH1 0x20 ADD ADD MLOAD PUSH1 0x0 DUP2 MLOAD DUP2 LT PUSH2 0x471 JUMPI PUSH2 0x470 PUSH2 0x151E JUMP JUMPDEST JUMPDEST PUSH1 0x20 MUL PUSH1 0x20 ADD ADD MLOAD SWAP1 POP PUSH1 0x0 DUP7 DUP4 DUP2 MLOAD DUP2 LT PUSH2 0x490 JUMPI PUSH2 0x48F PUSH2 0x151E JUMP JUMPDEST JUMPDEST PUSH1 0x20 MUL PUSH1 0x20 ADD ADD MLOAD PUSH1 0x1 DUP2 MLOAD DUP2 LT PUSH2 0x4AB JUMPI PUSH2 0x4AA PUSH2 0x151E JUMP JUMPDEST JUMPDEST PUSH1 0x20 MUL PUSH1 0x20 ADD ADD MLOAD SWAP1 POP PUSH1 0x7 DUP3 DUP2 SLOAD DUP2 LT PUSH2 0x4C9 JUMPI PUSH2 0x4C8 PUSH2 0x151E JUMP JUMPDEST JUMPDEST SWAP1 PUSH1 0x0 MSTORE PUSH1 0x20 PUSH1 0x0 KECCAK256 ADD DUP7 SWAP1 DUP1 PUSH1 0x1 DUP2 SLOAD ADD DUP1 DUP3 SSTORE DUP1 SWAP2 POP POP PUSH1 0x1 SWAP1 SUB SWAP1 PUSH1 0x0 MSTORE PUSH1 0x20 PUSH1 0x0 KECCAK256 ADD PUSH1 0x0 SWAP1 SWAP2 SWAP1 SWAP2 SWAP1 SWAP2 POP SSTORE PUSH1 0x0 PUSH1 0x1 DUP9 MLOAD PUSH2 0x50A SWAP2 SWAP1 PUSH2 0x1675 JUMP JUMPDEST DUP5 EQ ISZERO PUSH2 0x524 JUMPI DUP5 DUP10 PUSH2 0x51D SWAP2 SWAP1 PUSH2 0x1675 JUMP JUMPDEST SWAP1 POP PUSH2 0x575 JUMP JUMPDEST DUP6 DUP3 DUP11 PUSH1 0x4 DUP7 DUP2 SLOAD DUP2 LT PUSH2 0x53B JUMPI PUSH2 0x53A PUSH2 0x151E JUMP JUMPDEST JUMPDEST SWAP1 PUSH1 0x0 MSTORE PUSH1 0x20 PUSH1 0x0 KECCAK256 ADD SLOAD PUSH2 0x550 SWAP2 SWAP1 PUSH2 0x157C JUMP JUMPDEST PUSH2 0x55A SWAP2 SWAP1 PUSH2 0x157C JUMP JUMPDEST PUSH2 0x564 SWAP2 SWAP1 PUSH2 0x16D8 JUMP JUMPDEST SWAP1 POP DUP1 DUP6 PUSH2 0x572 SWAP2 SWAP1 PUSH2 0x15D6 JUMP JUMPDEST SWAP5 POP JUMPDEST DUP1 PUSH1 0x6 PUSH1 0x0 DUP6 DUP2 MSTORE PUSH1 0x20 ADD SWAP1 DUP2 MSTORE PUSH1 0x20 ADD PUSH1 0x0 KECCAK256 PUSH1 0x0 DUP10 DUP2 MSTORE PUSH1 0x20 ADD SWAP1 DUP2 MSTORE PUSH1 0x20 ADD PUSH1 0x0 KECCAK256 DUP2 SWAP1 SSTORE POP PUSH1 0x3 DUP4 DUP2 SLOAD DUP2 LT PUSH2 0x5B2 JUMPI PUSH2 0x5B1 PUSH2 0x151E JUMP JUMPDEST JUMPDEST SWAP1 PUSH1 0x0 MSTORE PUSH1 0x20 PUSH1 0x0 KECCAK256 ADD SLOAD DUP2 PUSH2 0x5C8 SWAP2 SWAP1 PUSH2 0x16D8 JUMP JUMPDEST PUSH1 0x4 DUP5 DUP2 SLOAD DUP2 LT PUSH2 0x5DC JUMPI PUSH2 0x5DB PUSH2 0x151E JUMP JUMPDEST JUMPDEST SWAP1 PUSH1 0x0 MSTORE PUSH1 0x20 PUSH1 0x0 KECCAK256 ADD PUSH1 0x0 DUP3 DUP3 SLOAD PUSH2 0x5F5 SWAP2 SWAP1 PUSH2 0x15D6 JUMP JUMPDEST SWAP3 POP POP DUP2 SWAP1 SSTORE POP POP POP POP DUP1 DUP1 PUSH2 0x60A SWAP1 PUSH2 0x162C JUMP JUMPDEST SWAP2 POP POP PUSH2 0x438 JUMP JUMPDEST POP PUSH32 0xF10976E9592D31E4FBD47D858E7642BC8FCAB1F0B1EF290E405C8F108CC56241 PUSH1 0x4 PUSH1 0x40 MLOAD PUSH2 0x643 SWAP2 SWAP1 PUSH2 0x1817 JUMP JUMPDEST PUSH1 0x40 MLOAD DUP1 SWAP2 SUB SWAP1 LOG1 POP POP POP POP POP JUMP JUMPDEST PUSH1 0x5 DUP2 DUP2 SLOAD DUP2 LT PUSH2 0x662 JUMPI PUSH1 0x0 DUP1 REVERT JUMPDEST SWAP1 PUSH1 0x0 MSTORE PUSH1 0x20 PUSH1 0x0 KECCAK256 ADD PUSH1 0x0 SWAP2 POP SWAP1 POP SLOAD DUP2 JUMP JUMPDEST PUSH1 0x6 PUSH1 0x20 MSTORE DUP2 PUSH1 0x0 MSTORE PUSH1 0x40 PUSH1 0x0 KECCAK256 PUSH1 0x20 MSTORE DUP1 PUSH1 0x0 MSTORE PUSH1 0x40 PUSH1 0x0 KECCAK256 PUSH1 0x0 SWAP2 POP SWAP2 POP POP SLOAD DUP2 JUMP JUMPDEST PUSH1 0x0 DUP1 SLOAD SWAP1 PUSH2 0x100 EXP SWAP1 DIV PUSH20 0xFFFFFFFFFFFFFFFFFFFFFFFFFFFFFFFFFFFFFFFF AND PUSH20 0xFFFFFFFFFFFFFFFFFFFFFFFFFFFFFFFFFFFFFFFF AND CALLER PUSH20 0xFFFFFFFFFFFFFFFFFFFFFFFFFFFFFFFFFFFFFFFF AND EQ PUSH2 0x729 JUMPI PUSH1 0x40 MLOAD PUSH32 0x8C379A000000000000000000000000000000000000000000000000000000000 DUP2 MSTORE PUSH1 0x4 ADD PUSH2 0x720 SWAP1 PUSH2 0x1885 JUMP JUMPDEST PUSH1 0x40 MLOAD DUP1 SWAP2 SUB SWAP1 REVERT JUMPDEST TIMESTAMP PUSH1 0x2 SLOAD GT ISZERO PUSH2 0x76E JUMPI PUSH1 0x40 MLOAD PUSH32 0x8C379A000000000000000000000000000000000000000000000000000000000 DUP2 MSTORE PUSH1 0x4 ADD PUSH2 0x765 SWAP1 PUSH2 0x1917 JUMP JUMPDEST PUSH1 0x40 MLOAD DUP1 SWAP2 SUB SWAP1 REVERT JUMPDEST PUSH1 0x0 PUSH1 0x3 DUP1 SLOAD SWAP1 POP SWAP1 POP PUSH1 0x0 DUP2 PUSH8 0xFFFFFFFFFFFFFFFF DUP2 GT ISZERO PUSH2 0x794 JUMPI PUSH2 0x793 PUSH2 0x114C JUMP JUMPDEST JUMPDEST PUSH1 0x40 MLOAD SWAP1 DUP1 DUP3 MSTORE DUP1 PUSH1 0x20 MUL PUSH1 0x20 ADD DUP3 ADD PUSH1 0x40 MSTORE DUP1 ISZERO PUSH2 0x7C7 JUMPI DUP2 PUSH1 0x20 ADD JUMPDEST PUSH1 0x60 DUP2 MSTORE PUSH1 0x20 ADD SWAP1 PUSH1 0x1 SWAP1 SUB SWAP1 DUP2 PUSH2 0x7B2 JUMPI SWAP1 POP JUMPDEST POP SWAP1 POP PUSH1 0x0 DUP3 PUSH8 0xFFFFFFFFFFFFFFFF DUP2 GT ISZERO PUSH2 0x7E6 JUMPI PUSH2 0x7E5 PUSH2 0x114C JUMP JUMPDEST JUMPDEST PUSH1 0x40 MLOAD SWAP1 DUP1 DUP3 MSTORE DUP1 PUSH1 0x20 MUL PUSH1 0x20 ADD DUP3 ADD PUSH1 0x40 MSTORE DUP1 ISZERO PUSH2 0x819 JUMPI DUP2 PUSH1 0x20 ADD JUMPDEST PUSH1 0x60 DUP2 MSTORE PUSH1 0x20 ADD SWAP1 PUSH1 0x1 SWAP1 SUB SWAP1 DUP2 PUSH2 0x804 JUMPI SWAP1 POP JUMPDEST POP SWAP1 POP PUSH1 0x0 JUMPDEST DUP4 DUP2 LT ISZERO PUSH2 0xA27 JUMPI PUSH1 0x0 PUSH1 0x7 DUP3 DUP2 SLOAD DUP2 LT PUSH2 0x83D JUMPI PUSH2 0x83C PUSH2 0x151E JUMP JUMPDEST JUMPDEST SWAP1 PUSH1 0x0 MSTORE PUSH1 0x20 PUSH1 0x0 KECCAK256 ADD DUP1 SLOAD SWAP1 POP SWAP1 POP PUSH1 0x0 DUP2 PUSH8 0xFFFFFFFFFFFFFFFF DUP2 GT ISZERO PUSH2 0x869 JUMPI PUSH2 0x868 PUSH2 0x114C JUMP JUMPDEST JUMPDEST PUSH1 0x40 MLOAD SWAP1 DUP1 DUP3 MSTORE DUP1 PUSH1 0x20 MUL PUSH1 0x20 ADD DUP3 ADD PUSH1 0x40 MSTORE DUP1 ISZERO PUSH2 0x897 JUMPI DUP2 PUSH1 0x20 ADD PUSH1 0x20 DUP3 MUL DUP1 CALLDATASIZE DUP4 CALLDATACOPY DUP1 DUP3 ADD SWAP2 POP POP SWAP1 POP JUMPDEST POP SWAP1 POP PUSH1 0x0 DUP3 PUSH8 0xFFFFFFFFFFFFFFFF DUP2 GT ISZERO PUSH2 0x8B6 JUMPI PUSH2 0x8B5 PUSH2 0x114C JUMP JUMPDEST JUMPDEST PUSH1 0x40 MLOAD SWAP1 DUP1 DUP3 MSTORE DUP1 PUSH1 0x20 MUL PUSH1 0x20 ADD DUP3 ADD PUSH1 0x40 MSTORE DUP1 ISZERO PUSH2 0x8E4 JUMPI DUP2 PUSH1 0x20 ADD PUSH1 0x20 DUP3 MUL DUP1 CALLDATASIZE DUP4 CALLDATACOPY DUP1 DUP3 ADD SWAP2 POP POP SWAP1 POP JUMPDEST POP SWAP1 POP PUSH1 0x0 JUMPDEST DUP4 DUP2 LT ISZERO PUSH2 0x9D2 JUMPI PUSH1 0x0 PUSH1 0x7 DUP7 DUP2 SLOAD DUP2 LT PUSH2 0x908 JUMPI PUSH2 0x907 PUSH2 0x151E JUMP JUMPDEST JUMPDEST SWAP1 PUSH1 0x0 MSTORE PUSH1 0x20 PUSH1 0x0 KECCAK256 ADD DUP3 DUP2 SLOAD DUP2 LT PUSH2 0x924 JUMPI PUSH2 0x923 PUSH2 0x151E JUMP JUMPDEST JUMPDEST SWAP1 PUSH1 0x0 MSTORE PUSH1 0x20 PUSH1 0x0 KECCAK256 ADD SLOAD SWAP1 POP PUSH1 0x4 DUP7 DUP2 SLOAD DUP2 LT PUSH2 0x945 JUMPI PUSH2 0x944 PUSH2 0x151E JUMP JUMPDEST JUMPDEST SWAP1 PUSH1 0x0 MSTORE PUSH1 0x20 PUSH1 0x0 KECCAK256 ADD SLOAD PUSH1 0x6 PUSH1 0x0 DUP9 DUP2 MSTORE PUSH1 0x20 ADD SWAP1 DUP2 MSTORE PUSH1 0x20 ADD PUSH1 0x0 KECCAK256 PUSH1 0x0 DUP4 DUP2 MSTORE PUSH1 0x20 ADD SWAP1 DUP2 MSTORE PUSH1 0x20 ADD PUSH1 0x0 KECCAK256 SLOAD PUSH2 0x97F SWAP2 SWAP1 PUSH2 0x16D8 JUMP JUMPDEST DUP5 DUP4 DUP2 MLOAD DUP2 LT PUSH2 0x992 JUMPI PUSH2 0x991 PUSH2 0x151E JUMP JUMPDEST JUMPDEST PUSH1 0x20 MUL PUSH1 0x20 ADD ADD DUP2 DUP2 MSTORE POP POP DUP1 DUP4 DUP4 DUP2 MLOAD DUP2 LT PUSH2 0x9B2 JUMPI PUSH2 0x9B1 PUSH2 0x151E JUMP JUMPDEST JUMPDEST PUSH1 0x20 MUL PUSH1 0x20 ADD ADD DUP2 DUP2 MSTORE POP POP POP DUP1 DUP1 PUSH2 0x9CA SWAP1 PUSH2 0x162C JUMP JUMPDEST SWAP2 POP POP PUSH2 0x8EA JUMP JUMPDEST POP DUP2 DUP7 DUP6 DUP2 MLOAD DUP2 LT PUSH2 0x9E7 JUMPI PUSH2 0x9E6 PUSH2 0x151E JUMP JUMPDEST JUMPDEST PUSH1 0x20 MUL PUSH1 0x20 ADD ADD DUP2 SWAP1 MSTORE POP DUP1 DUP6 DUP6 DUP2 MLOAD DUP2 LT PUSH2 0xA06 JUMPI PUSH2 0xA05 PUSH2 0x151E JUMP JUMPDEST JUMPDEST PUSH1 0x20 MUL PUSH1 0x20 ADD ADD DUP2 SWAP1 MSTORE POP POP POP POP DUP1 DUP1 PUSH2 0xA1F SWAP1 PUSH2 0x162C JUMP JUMPDEST SWAP2 POP POP PUSH2 0x81F JUMP JUMPDEST POP PUSH32 0xFC34AB54EAF4E470D6E598E6C2FC84089EC3B6C96E2757E965B42917D6CC84FA DUP3 DUP3 PUSH1 0x40 MLOAD PUSH2 0xA59 SWAP3 SWAP2 SWAP1 PUSH2 0x1A90 JUMP JUMPDEST PUSH1 0x40 MLOAD DUP1 SWAP2 SUB SWAP1 LOG1 PUSH1 0x1 SLOAD TIMESTAMP PUSH2 0xA6F SWAP2 SWAP1 PUSH2 0x15D6 JUMP JUMPDEST PUSH1 0x2 DUP2 SWAP1 SSTORE POP PUSH1 0x5 PUSH1 0x0 PUSH2 0xA83 SWAP2 SWAP1 PUSH2 0xF40 JUMP JUMPDEST PUSH1 0x8 PUSH1 0x0 PUSH2 0xA91 SWAP2 SWAP1 PUSH2 0xF61 JUMP JUMPDEST PUSH1 0x0 JUMPDEST PUSH1 0x3 DUP1 SLOAD SWAP1 POP DUP2 LT ISZERO PUSH2 0xADE JUMPI PUSH1 0x7 DUP2 DUP2 SLOAD DUP2 LT PUSH2 0xAB5 JUMPI PUSH2 0xAB4 PUSH2 0x151E JUMP JUMPDEST JUMPDEST SWAP1 PUSH1 0x0 MSTORE PUSH1 0x20 PUSH1 0x0 KECCAK256 ADD PUSH1 0x0 PUSH2 0xACB SWAP2 SWAP1 PUSH2 0xF40 JUMP JUMPDEST DUP1 DUP1 PUSH2 0xAD6 SWAP1 PUSH2 0x162C JUMP JUMPDEST SWAP2 POP POP PUSH2 0xA94 JUMP JUMPDEST POP POP POP POP JUMP JUMPDEST CALLER PUSH20 0xFFFFFFFFFFFFFFFFFFFFFFFFFFFFFFFFFFFFFFFF AND PUSH1 0x9 PUSH1 0x0 DUP5 DUP2 MSTORE PUSH1 0x20 ADD SWAP1 DUP2 MSTORE PUSH1 0x20 ADD PUSH1 0x0 KECCAK256 PUSH1 0x0 SWAP1 SLOAD SWAP1 PUSH2 0x100 EXP SWAP1 DIV PUSH20 0xFFFFFFFFFFFFFFFFFFFFFFFFFFFFFFFFFFFFFFFF AND PUSH20 0xFFFFFFFFFFFFFFFFFFFFFFFFFFFFFFFFFFFFFFFF AND EQ PUSH2 0xB85 JUMPI PUSH1 0x40 MLOAD PUSH32 0x8C379A000000000000000000000000000000000000000000000000000000000 DUP2 MSTORE PUSH1 0x4 ADD PUSH2 0xB7C SWAP1 PUSH2 0x1B13 JUMP JUMPDEST PUSH1 0x40 MLOAD DUP1 SWAP2 SUB SWAP1 REVERT JUMPDEST PUSH1 0x0 DUP1 JUMPDEST DUP3 MLOAD DUP2 LT ISZERO PUSH2 0xBCD JUMPI DUP3 DUP2 DUP2 MLOAD DUP2 LT PUSH2 0xBA5 JUMPI PUSH2 0xBA4 PUSH2 0x151E JUMP JUMPDEST JUMPDEST PUSH1 0x20 MUL PUSH1 0x20 ADD ADD MLOAD DUP3 PUSH2 0xBB8 SWAP2 SWAP1 PUSH2 0x15D6 JUMP JUMPDEST SWAP2 POP DUP1 DUP1 PUSH2 0xBC5 SWAP1 PUSH2 0x162C JUMP JUMPDEST SWAP2 POP POP PUSH2 0xB89 JUMP JUMPDEST POP PUSH1 0x5 DUP4 DUP2 SLOAD DUP2 LT PUSH2 0xBE2 JUMPI PUSH2 0xBE1 PUSH2 0x151E JUMP JUMPDEST JUMPDEST SWAP1 PUSH1 0x0 MSTORE PUSH1 0x20 PUSH1 0x0 KECCAK256 ADD SLOAD DUP2 GT ISZERO PUSH2 0xC2F JUMPI PUSH1 0x40 MLOAD PUSH32 0x8C379A000000000000000000000000000000000000000000000000000000000 DUP2 MSTORE PUSH1 0x4 ADD PUSH2 0xC26 SWAP1 PUSH2 0x1BA5 JUMP JUMPDEST PUSH1 0x40 MLOAD DUP1 SWAP2 SUB SWAP1 REVERT JUMPDEST PUSH1 0x8 DUP4 DUP2 SLOAD DUP2 LT PUSH2 0xC43 JUMPI PUSH2 0xC42 PUSH2 0x151E JUMP JUMPDEST JUMPDEST SWAP1 PUSH1 0x0 MSTORE PUSH1 0x20 PUSH1 0x0 KECCAK256 ADD DUP1 SLOAD SWAP1 POP DUP3 MLOAD EQ PUSH2 0xC93 JUMPI PUSH1 0x40 MLOAD PUSH32 0x8C379A000000000000000000000000000000000000000000000000000000000 DUP2 MSTORE PUSH1 0x4 ADD PUSH2 0xC8A SWAP1 PUSH2 0x1C37 JUMP JUMPDEST PUSH1 0x40 MLOAD DUP1 SWAP2 SUB SWAP1 REVERT JUMPDEST PUSH1 0x0 JUMPDEST DUP3 MLOAD DUP2 LT ISZERO PUSH2 0xE4C JUMPI PUSH1 0x0 PUSH1 0x8 DUP6 DUP2 SLOAD DUP2 LT PUSH2 0xCB5 JUMPI PUSH2 0xCB4 PUSH2 0x151E JUMP JUMPDEST JUMPDEST SWAP1 PUSH1 0x0 MSTORE PUSH1 0x20 PUSH1 0x0 KECCAK256 ADD DUP3 DUP2 SLOAD DUP2 LT PUSH2 0xCD1 JUMPI PUSH2 0xCD0 PUSH2 0x151E JUMP JUMPDEST JUMPDEST SWAP1 PUSH1 0x0 MSTORE PUSH1 0x20 PUSH1 0x0 KECCAK256 ADD PUSH1 0x0 DUP2 SLOAD DUP2 LT PUSH2 0xCEE JUMPI PUSH2 0xCED PUSH2 0x151E JUMP JUMPDEST JUMPDEST SWAP1 PUSH1 0x0 MSTORE PUSH1 0x20 PUSH1 0x0 KECCAK256 ADD SLOAD SWAP1 POP PUSH1 0x3 DUP2 DUP2 SLOAD DUP2 LT PUSH2 0xD0F JUMPI PUSH2 0xD0E PUSH2 0x151E JUMP JUMPDEST JUMPDEST SWAP1 PUSH1 0x0 MSTORE PUSH1 0x20 PUSH1 0x0 KECCAK256 ADD SLOAD DUP5 DUP4 DUP2 MLOAD DUP2 LT PUSH2 0xD2D JUMPI PUSH2 0xD2C PUSH2 0x151E JUMP JUMPDEST JUMPDEST PUSH1 0x20 MUL PUSH1 0x20 ADD ADD MLOAD PUSH2 0xD3F SWAP2 SWAP1 PUSH2 0x16D8 JUMP JUMPDEST PUSH1 0x4 DUP3 DUP2 SLOAD DUP2 LT PUSH2 0xD53 JUMPI PUSH2 0xD52 PUSH2 0x151E JUMP JUMPDEST JUMPDEST SWAP1 PUSH1 0x0 MSTORE PUSH1 0x20 PUSH1 0x0 KECCAK256 ADD PUSH1 0x0 DUP3 DUP3 SLOAD PUSH2 0xD6C SWAP2 SWAP1 PUSH2 0x15D6 JUMP JUMPDEST SWAP3 POP POP DUP2 SWAP1 SSTORE POP PUSH1 0x3 DUP2 DUP2 SLOAD DUP2 LT PUSH2 0xD87 JUMPI PUSH2 0xD86 PUSH2 0x151E JUMP JUMPDEST JUMPDEST SWAP1 PUSH1 0x0 MSTORE PUSH1 0x20 PUSH1 0x0 KECCAK256 ADD SLOAD PUSH1 0x6 PUSH1 0x0 DUP4 DUP2 MSTORE PUSH1 0x20 ADD SWAP1 DUP2 MSTORE PUSH1 0x20 ADD PUSH1 0x0 KECCAK256 PUSH1 0x0 DUP8 DUP2 MSTORE PUSH1 0x20 ADD SWAP1 DUP2 MSTORE PUSH1 0x20 ADD PUSH1 0x0 KECCAK256 SLOAD PUSH2 0xDC1 SWAP2 SWAP1 PUSH2 0x16D8 JUMP JUMPDEST PUSH1 0x4 DUP3 DUP2 SLOAD DUP2 LT PUSH2 0xDD5 JUMPI PUSH2 0xDD4 PUSH2 0x151E JUMP JUMPDEST JUMPDEST SWAP1 PUSH1 0x0 MSTORE PUSH1 0x20 PUSH1 0x0 KECCAK256 ADD PUSH1 0x0 DUP3 DUP3 SLOAD PUSH2 0xDEE SWAP2 SWAP1 PUSH2 0x1675 JUMP JUMPDEST SWAP3 POP POP DUP2 SWAP1 SSTORE POP DUP4 DUP3 DUP2 MLOAD DUP2 LT PUSH2 0xE08 JUMPI PUSH2 0xE07 PUSH2 0x151E JUMP JUMPDEST JUMPDEST PUSH1 0x20 MUL PUSH1 0x20 ADD ADD MLOAD PUSH1 0x6 PUSH1 0x0 DUP4 DUP2 MSTORE PUSH1 0x20 ADD SWAP1 DUP2 MSTORE PUSH1 0x20 ADD PUSH1 0x0 KECCAK256 PUSH1 0x0 DUP8 DUP2 MSTORE PUSH1 0x20 ADD SWAP1 DUP2 MSTORE PUSH1 0x20 ADD PUSH1 0x0 KECCAK256 DUP2 SWAP1 SSTORE POP POP DUP1 DUP1 PUSH2 0xE44 SWAP1 PUSH2 0x162C JUMP JUMPDEST SWAP2 POP POP PUSH2 0xC96 JUMP JUMPDEST POP PUSH32 0xF10976E9592D31E4FBD47D858E7642BC8FCAB1F0B1EF290E405C8F108CC56241 PUSH1 0x4 PUSH1 0x40 MLOAD PUSH2 0xE7D SWAP2 SWAP1 PUSH2 0x1817 JUMP JUMPDEST PUSH1 0x40 MLOAD DUP1 SWAP2 SUB SWAP1 LOG1 POP POP POP JUMP JUMPDEST PUSH1 0x8 DUP4 DUP2 SLOAD DUP2 LT PUSH2 0xE9A JUMPI PUSH1 0x0 DUP1 REVERT JUMPDEST SWAP1 PUSH1 0x0 MSTORE PUSH1 0x20 PUSH1 0x0 KECCAK256 ADD DUP3 DUP2 SLOAD DUP2 LT PUSH2 0xEB2 JUMPI PUSH1 0x0 DUP1 REVERT JUMPDEST SWAP1 PUSH1 0x0 MSTORE PUSH1 0x20 PUSH1 0x0 KECCAK256 ADD DUP2 DUP2 SLOAD DUP2 LT PUSH2 0xECA JUMPI PUSH1 0x0 DUP1 REVERT JUMPDEST SWAP1 PUSH1 0x0 MSTORE PUSH1 0x20 PUSH1 0x0 KECCAK256 ADD PUSH1 0x0 SWAP3 POP SWAP3 POP POP POP SLOAD DUP2 JUMP JUMPDEST DUP3 DUP1 SLOAD DUP3 DUP3 SSTORE SWAP1 PUSH1 0x0 MSTORE PUSH1 0x20 PUSH1 0x0 KECCAK256 SWAP1 DUP2 ADD SWAP3 DUP3 ISZERO PUSH2 0xF2F JUMPI SWAP2 PUSH1 0x20 MUL DUP3 ADD JUMPDEST DUP3 DUP2 GT ISZERO PUSH2 0xF2E JUMPI DUP3 MLOAD DUP3 SWAP1 DUP1 MLOAD SWAP1 PUSH1 0x20 ADD SWAP1 PUSH2 0xF1E SWAP3 SWAP2 SWAP1 PUSH2 0xF82 JUMP JUMPDEST POP SWAP2 PUSH1 0x20 ADD SWAP2 SWAP1 PUSH1 0x1 ADD SWAP1 PUSH2 0xF00 JUMP JUMPDEST JUMPDEST POP SWAP1 POP PUSH2 0xF3C SWAP2 SWAP1 PUSH2 0xFCF JUMP JUMPDEST POP SWAP1 JUMP JUMPDEST POP DUP1 SLOAD PUSH1 0x0 DUP3 SSTORE SWAP1 PUSH1 0x0 MSTORE PUSH1 0x20 PUSH1 0x0 KECCAK256 SWAP1 DUP2 ADD SWAP1 PUSH2 0xF5E SWAP2 SWAP1 PUSH2 0xFF3 JUMP JUMPDEST POP JUMP JUMPDEST POP DUP1 SLOAD PUSH1 0x0 DUP3 SSTORE SWAP1 PUSH1 0x0 MSTORE PUSH1 0x20 PUSH1 0x0 KECCAK256 SWAP1 DUP2 ADD SWAP1 PUSH2 0xF7F SWAP2 SWAP1 PUSH2 0x1010 JUMP JUMPDEST POP JUMP JUMPDEST DUP3 DUP1 SLOAD DUP3 DUP3 SSTORE SWAP1 PUSH1 0x0 MSTORE PUSH1 0x20 PUSH1 0x0 KECCAK256 SWAP1 DUP2 ADD SWAP3 DUP3 ISZERO PUSH2 0xFBE JUMPI SWAP2 PUSH1 0x20 MUL DUP3 ADD JUMPDEST DUP3 DUP2 GT ISZERO PUSH2 0xFBD JUMPI DUP3 MLOAD DUP3 SSTORE SWAP2 PUSH1 0x20 ADD SWAP2 SWAP1 PUSH1 0x1 ADD SWAP1 PUSH2 0xFA2 JUMP JUMPDEST JUMPDEST POP SWAP1 POP PUSH2 0xFCB SWAP2 SWAP1 PUSH2 0xFF3 JUMP JUMPDEST POP SWAP1 JUMP JUMPDEST JUMPDEST DUP1 DUP3 GT ISZERO PUSH2 0xFEF JUMPI PUSH1 0x0 DUP2 DUP2 PUSH2 0xFE6 SWAP2 SWAP1 PUSH2 0xF40 JUMP JUMPDEST POP PUSH1 0x1 ADD PUSH2 0xFD0 JUMP JUMPDEST POP SWAP1 JUMP JUMPDEST JUMPDEST DUP1 DUP3 GT ISZERO PUSH2 0x100C JUMPI PUSH1 0x0 DUP2 PUSH1 0x0 SWAP1 SSTORE POP PUSH1 0x1 ADD PUSH2 0xFF4 JUMP JUMPDEST POP SWAP1 JUMP JUMPDEST JUMPDEST DUP1 DUP3 GT ISZERO PUSH2 0x1030 JUMPI PUSH1 0x0 DUP2 DUP2 PUSH2 0x1027 SWAP2 SWAP1 PUSH2 0x1034 JUMP JUMPDEST POP PUSH1 0x1 ADD PUSH2 0x1011 JUMP JUMPDEST POP SWAP1 JUMP JUMPDEST POP DUP1 SLOAD PUSH1 0x0 DUP3 SSTORE SWAP1 PUSH1 0x0 MSTORE PUSH1 0x20 PUSH1 0x0 KECCAK256 SWAP1 DUP2 ADD SWAP1 PUSH2 0x1052 SWAP2 SWAP1 PUSH2 0xFCF JUMP JUMPDEST POP JUMP JUMPDEST PUSH1 0x0 PUSH1 0x40 MLOAD SWAP1 POP SWAP1 JUMP JUMPDEST PUSH1 0x0 DUP1 REVERT JUMPDEST PUSH1 0x0 DUP1 REVERT JUMPDEST PUSH1 0x0 DUP2 SWAP1 POP SWAP2 SWAP1 POP JUMP JUMPDEST PUSH2 0x107C DUP2 PUSH2 0x1069 JUMP JUMPDEST DUP2 EQ PUSH2 0x1087 JUMPI PUSH1 0x0 DUP1 REVERT JUMPDEST POP JUMP JUMPDEST PUSH1 0x0 DUP2 CALLDATALOAD SWAP1 POP PUSH2 0x1099 DUP2 PUSH2 0x1073 JUMP JUMPDEST SWAP3 SWAP2 POP POP JUMP JUMPDEST PUSH1 0x0 PUSH1 0x20 DUP3 DUP5 SUB SLT ISZERO PUSH2 0x10B5 JUMPI PUSH2 0x10B4 PUSH2 0x105F JUMP JUMPDEST JUMPDEST PUSH1 0x0 PUSH2 0x10C3 DUP5 DUP3 DUP6 ADD PUSH2 0x108A JUMP JUMPDEST SWAP2 POP POP SWAP3 SWAP2 POP POP JUMP JUMPDEST PUSH2 0x10D5 DUP2 PUSH2 0x1069 JUMP JUMPDEST DUP3 MSTORE POP POP JUMP JUMPDEST PUSH1 0x0 PUSH1 0x20 DUP3 ADD SWAP1 POP PUSH2 0x10F0 PUSH1 0x0 DUP4 ADD DUP5 PUSH2 0x10CC JUMP JUMPDEST SWAP3 SWAP2 POP POP JUMP JUMPDEST PUSH1 0x0 DUP1 PUSH1 0x40 DUP4 DUP6 SUB SLT ISZERO PUSH2 0x110D JUMPI PUSH2 0x110C PUSH2 0x105F JUMP JUMPDEST JUMPDEST PUSH1 0x0 PUSH2 0x111B DUP6 DUP3 DUP7 ADD PUSH2 0x108A JUMP JUMPDEST SWAP3 POP POP PUSH1 0x20 PUSH2 0x112C DUP6 DUP3 DUP7 ADD PUSH2 0x108A JUMP JUMPDEST SWAP2 POP POP SWAP3 POP SWAP3 SWAP1 POP JUMP JUMPDEST PUSH1 0x0 DUP1 REVERT JUMPDEST PUSH1 0x0 PUSH1 0x1F NOT PUSH1 0x1F DUP4 ADD AND SWAP1 POP SWAP2 SWAP1 POP JUMP JUMPDEST PUSH32 0x4E487B7100000000000000000000000000000000000000000000000000000000 PUSH1 0x0 MSTORE PUSH1 0x41 PUSH1 0x4 MSTORE PUSH1 0x24 PUSH1 0x0 REVERT JUMPDEST PUSH2 0x1184 DUP3 PUSH2 0x113B JUMP JUMPDEST DUP2 ADD DUP2 DUP2 LT PUSH8 0xFFFFFFFFFFFFFFFF DUP3 GT OR ISZERO PUSH2 0x11A3 JUMPI PUSH2 0x11A2 PUSH2 0x114C JUMP JUMPDEST JUMPDEST DUP1 PUSH1 0x40 MSTORE POP POP POP JUMP JUMPDEST PUSH1 0x0 PUSH2 0x11B6 PUSH2 0x1055 JUMP JUMPDEST SWAP1 POP PUSH2 0x11C2 DUP3 DUP3 PUSH2 0x117B JUMP JUMPDEST SWAP2 SWAP1 POP JUMP JUMPDEST PUSH1 0x0 PUSH8 0xFFFFFFFFFFFFFFFF DUP3 GT ISZERO PUSH2 0x11E2 JUMPI PUSH2 0x11E1 PUSH2 0x114C JUMP JUMPDEST JUMPDEST PUSH1 0x20 DUP3 MUL SWAP1 POP PUSH1 0x20 DUP2 ADD SWAP1 POP SWAP2 SWAP1 POP JUMP JUMPDEST PUSH1 0x0 DUP1 REVERT JUMPDEST PUSH1 0x0 PUSH8 0xFFFFFFFFFFFFFFFF DUP3 GT ISZERO PUSH2 0x1213 JUMPI PUSH2 0x1212 PUSH2 0x114C JUMP JUMPDEST JUMPDEST PUSH1 0x20 DUP3 MUL SWAP1 POP PUSH1 0x20 DUP2 ADD SWAP1 POP SWAP2 SWAP1 POP JUMP JUMPDEST PUSH1 0x0 PUSH2 0x1237 PUSH2 0x1232 DUP5 PUSH2 0x11F8 JUMP JUMPDEST PUSH2 0x11AC JUMP JUMPDEST SWAP1 POP DUP1 DUP4 DUP3 MSTORE PUSH1 0x20 DUP3 ADD SWAP1 POP PUSH1 0x20 DUP5 MUL DUP4 ADD DUP6 DUP2 GT ISZERO PUSH2 0x125A JUMPI PUSH2 0x1259 PUSH2 0x11F3 JUMP JUMPDEST JUMPDEST DUP4 JUMPDEST DUP2 DUP2 LT ISZERO PUSH2 0x1283 JUMPI DUP1 PUSH2 0x126F DUP9 DUP3 PUSH2 0x108A JUMP JUMPDEST DUP5 MSTORE PUSH1 0x20 DUP5 ADD SWAP4 POP POP PUSH1 0x20 DUP2 ADD SWAP1 POP PUSH2 0x125C JUMP JUMPDEST POP POP POP SWAP4 SWAP3 POP POP POP JUMP JUMPDEST PUSH1 0x0 DUP3 PUSH1 0x1F DUP4 ADD SLT PUSH2 0x12A2 JUMPI PUSH2 0x12A1 PUSH2 0x1136 JUMP JUMPDEST JUMPDEST DUP2 CALLDATALOAD PUSH2 0x12B2 DUP5 DUP3 PUSH1 0x20 DUP7 ADD PUSH2 0x1224 JUMP JUMPDEST SWAP2 POP POP SWAP3 SWAP2 POP POP JUMP JUMPDEST PUSH1 0x0 PUSH2 0x12CE PUSH2 0x12C9 DUP5 PUSH2 0x11C7 JUMP JUMPDEST PUSH2 0x11AC JUMP JUMPDEST SWAP1 POP DUP1 DUP4 DUP3 MSTORE PUSH1 0x20 DUP3 ADD SWAP1 POP PUSH1 0x20 DUP5 MUL DUP4 ADD DUP6 DUP2 GT ISZERO PUSH2 0x12F1 JUMPI PUSH2 0x12F0 PUSH2 0x11F3 JUMP JUMPDEST JUMPDEST DUP4 JUMPDEST DUP2 DUP2 LT ISZERO PUSH2 0x1338 JUMPI DUP1 CALLDATALOAD PUSH8 0xFFFFFFFFFFFFFFFF DUP2 GT ISZERO PUSH2 0x1316 JUMPI PUSH2 0x1315 PUSH2 0x1136 JUMP JUMPDEST JUMPDEST DUP1 DUP7 ADD PUSH2 0x1323 DUP10 DUP3 PUSH2 0x128D JUMP JUMPDEST DUP6 MSTORE PUSH1 0x20 DUP6 ADD SWAP5 POP POP POP PUSH1 0x20 DUP2 ADD SWAP1 POP PUSH2 0x12F3 JUMP JUMPDEST POP POP POP SWAP4 SWAP3 POP POP POP JUMP JUMPDEST PUSH1 0x0 DUP3 PUSH1 0x1F DUP4 ADD SLT PUSH2 0x1357 JUMPI PUSH2 0x1356 PUSH2 0x1136 JUMP JUMPDEST JUMPDEST DUP2 CALLDATALOAD PUSH2 0x1367 DUP5 DUP3 PUSH1 0x20 DUP7 ADD PUSH2 0x12BB JUMP JUMPDEST SWAP2 POP POP SWAP3 SWAP2 POP POP JUMP JUMPDEST PUSH1 0x0 DUP1 PUSH1 0x40 DUP4 DUP6 SUB SLT ISZERO PUSH2 0x1387 JUMPI PUSH2 0x1386 PUSH2 0x105F JUMP JUMPDEST JUMPDEST PUSH1 0x0 PUSH2 0x1395 DUP6 DUP3 DUP7 ADD PUSH2 0x108A JUMP JUMPDEST SWAP3 POP POP PUSH1 0x20 DUP4 ADD CALLDATALOAD PUSH8 0xFFFFFFFFFFFFFFFF DUP2 GT ISZERO PUSH2 0x13B6 JUMPI PUSH2 0x13B5 PUSH2 0x1064 JUMP JUMPDEST JUMPDEST PUSH2 0x13C2 DUP6 DUP3 DUP7 ADD PUSH2 0x1342 JUMP JUMPDEST SWAP2 POP POP SWAP3 POP SWAP3 SWAP1 POP JUMP JUMPDEST PUSH1 0x0 DUP1 PUSH1 0x40 DUP4 DUP6 SUB SLT ISZERO PUSH2 0x13E3 JUMPI PUSH2 0x13E2 PUSH2 0x105F JUMP JUMPDEST JUMPDEST PUSH1 0x0 PUSH2 0x13F1 DUP6 DUP3 DUP7 ADD PUSH2 0x108A JUMP JUMPDEST SWAP3 POP POP PUSH1 0x20 DUP4 ADD CALLDATALOAD PUSH8 0xFFFFFFFFFFFFFFFF DUP2 GT ISZERO PUSH2 0x1412 JUMPI PUSH2 0x1411 PUSH2 0x1064 JUMP JUMPDEST JUMPDEST PUSH2 0x141E DUP6 DUP3 DUP7 ADD PUSH2 0x128D JUMP JUMPDEST SWAP2 POP POP SWAP3 POP SWAP3 SWAP1 POP JUMP JUMPDEST PUSH1 0x0 DUP1 PUSH1 0x0 PUSH1 0x60 DUP5 DUP7 SUB SLT ISZERO PUSH2 0x1441 JUMPI PUSH2 0x1440 PUSH2 0x105F JUMP JUMPDEST JUMPDEST PUSH1 0x0 PUSH2 0x144F DUP7 DUP3 DUP8 ADD PUSH2 0x108A JUMP JUMPDEST SWAP4 POP POP PUSH1 0x20 PUSH2 0x1460 DUP7 DUP3 DUP8 ADD PUSH2 0x108A JUMP JUMPDEST SWAP3 POP POP PUSH1 0x40 PUSH2 0x1471 DUP7 DUP3 DUP8 ADD PUSH2 0x108A JUMP JUMPDEST SWAP2 POP POP SWAP3 POP SWAP3 POP SWAP3 JUMP JUMPDEST PUSH1 0x0 DUP3 DUP3 MSTORE PUSH1 0x20 DUP3 ADD SWAP1 POP SWAP3 SWAP2 POP POP JUMP JUMPDEST PUSH32 0x45746865722073656E74206D757374206265206174206C6561737420796F7572 PUSH1 0x0 DUP3 ADD MSTORE PUSH32 0x2062756467657400000000000000000000000000000000000000000000000000 PUSH1 0x20 DUP3 ADD MSTORE POP JUMP JUMPDEST PUSH1 0x0 PUSH2 0x14E8 PUSH1 0x27 DUP4 PUSH2 0x147B JUMP JUMPDEST SWAP2 POP PUSH2 0x14F3 DUP3 PUSH2 0x148C JUMP JUMPDEST PUSH1 0x40 DUP3 ADD SWAP1 POP SWAP2 SWAP1 POP JUMP JUMPDEST PUSH1 0x0 PUSH1 0x20 DUP3 ADD SWAP1 POP DUP2 DUP2 SUB PUSH1 0x0 DUP4 ADD MSTORE PUSH2 0x1517 DUP2 PUSH2 0x14DB JUMP JUMPDEST SWAP1 POP SWAP2 SWAP1 POP JUMP JUMPDEST PUSH32 0x4E487B7100000000000000000000000000000000000000000000000000000000 PUSH1 0x0 MSTORE PUSH1 0x32 PUSH1 0x4 MSTORE PUSH1 0x24 PUSH1 0x0 REVERT JUMPDEST PUSH32 0x4E487B7100000000000000000000000000000000000000000000000000000000 PUSH1 0x0 MSTORE PUSH1 0x11 PUSH1 0x4 MSTORE PUSH1 0x24 PUSH1 0x0 REVERT JUMPDEST PUSH1 0x0 PUSH2 0x1587 DUP3 PUSH2 0x1069 JUMP JUMPDEST SWAP2 POP PUSH2 0x1592 DUP4 PUSH2 0x1069 JUMP JUMPDEST SWAP3 POP DUP2 PUSH32 0xFFFFFFFFFFFFFFFFFFFFFFFFFFFFFFFFFFFFFFFFFFFFFFFFFFFFFFFFFFFFFFFF DIV DUP4 GT DUP3 ISZERO ISZERO AND ISZERO PUSH2 0x15CB JUMPI PUSH2 0x15CA PUSH2 0x154D JUMP JUMPDEST JUMPDEST DUP3 DUP3 MUL SWAP1 POP SWAP3 SWAP2 POP POP JUMP JUMPDEST PUSH1 0x0 PUSH2 0x15E1 DUP3 PUSH2 0x1069 JUMP JUMPDEST SWAP2 POP PUSH2 0x15EC DUP4 PUSH2 0x1069 JUMP JUMPDEST SWAP3 POP DUP3 PUSH32 0xFFFFFFFFFFFFFFFFFFFFFFFFFFFFFFFFFFFFFFFFFFFFFFFFFFFFFFFFFFFFFFFF SUB DUP3 GT ISZERO PUSH2 0x1621 JUMPI PUSH2 0x1620 PUSH2 0x154D JUMP JUMPDEST JUMPDEST DUP3 DUP3 ADD SWAP1 POP SWAP3 SWAP2 POP POP JUMP JUMPDEST PUSH1 0x0 PUSH2 0x1637 DUP3 PUSH2 0x1069 JUMP JUMPDEST SWAP2 POP PUSH32 0xFFFFFFFFFFFFFFFFFFFFFFFFFFFFFFFFFFFFFFFFFFFFFFFFFFFFFFFFFFFFFFFF DUP3 EQ ISZERO PUSH2 0x166A JUMPI PUSH2 0x1669 PUSH2 0x154D JUMP JUMPDEST JUMPDEST PUSH1 0x1 DUP3 ADD SWAP1 POP SWAP2 SWAP1 POP JUMP JUMPDEST PUSH1 0x0 PUSH2 0x1680 DUP3 PUSH2 0x1069 JUMP JUMPDEST SWAP2 POP PUSH2 0x168B DUP4 PUSH2 0x1069 JUMP JUMPDEST SWAP3 POP DUP3 DUP3 LT ISZERO PUSH2 0x169E JUMPI PUSH2 0x169D PUSH2 0x154D JUMP JUMPDEST JUMPDEST DUP3 DUP3 SUB SWAP1 POP SWAP3 SWAP2 POP POP JUMP JUMPDEST PUSH32 0x4E487B7100000000000000000000000000000000000000000000000000000000 PUSH1 0x0 MSTORE PUSH1 0x12 PUSH1 0x4 MSTORE PUSH1 0x24 PUSH1 0x0 REVERT JUMPDEST PUSH1 0x0 PUSH2 0x16E3 DUP3 PUSH2 0x1069 JUMP JUMPDEST SWAP2 POP PUSH2 0x16EE DUP4 PUSH2 0x1069 JUMP JUMPDEST SWAP3 POP DUP3 PUSH2 0x16FE JUMPI PUSH2 0x16FD PUSH2 0x16A9 JUMP JUMPDEST JUMPDEST DUP3 DUP3 DIV SWAP1 POP SWAP3 SWAP2 POP POP JUMP JUMPDEST PUSH1 0x0 DUP2 SLOAD SWAP1 POP SWAP2 SWAP1 POP JUMP JUMPDEST PUSH1 0x0 DUP3 DUP3 MSTORE PUSH1 0x20 DUP3 ADD SWAP1 POP SWAP3 SWAP2 POP POP JUMP JUMPDEST PUSH1 0x0 DUP2 SWAP1 POP DUP2 PUSH1 0x0 MSTORE PUSH1 0x20 PUSH1 0x0 KECCAK256 SWAP1 POP SWAP2 SWAP1 POP JUMP JUMPDEST PUSH2 0x1743 DUP2 PUSH2 0x1069 JUMP JUMPDEST DUP3 MSTORE POP POP JUMP JUMPDEST PUSH1 0x0 PUSH2 0x1755 DUP4 DUP4 PUSH2 0x173A JUMP JUMPDEST PUSH1 0x20 DUP4 ADD SWAP1 POP SWAP3 SWAP2 POP POP JUMP JUMPDEST PUSH1 0x0 DUP2 PUSH1 0x0 SHR SWAP1 POP SWAP2 SWAP1 POP JUMP JUMPDEST PUSH1 0x0 DUP2 SWAP1 POP SWAP2 SWAP1 POP JUMP JUMPDEST PUSH1 0x0 PUSH2 0x178B PUSH2 0x1786 DUP4 PUSH2 0x1761 JUMP JUMPDEST PUSH2 0x176E JUMP JUMPDEST SWAP1 POP SWAP2 SWAP1 POP JUMP JUMPDEST PUSH1 0x0 PUSH2 0x179E DUP3 SLOAD PUSH2 0x1778 JUMP JUMPDEST SWAP1 POP SWAP2 SWAP1 POP JUMP JUMPDEST PUSH1 0x0 PUSH1 0x1 DUP3 ADD SWAP1 POP SWAP2 SWAP1 POP JUMP JUMPDEST PUSH1 0x0 PUSH2 0x17BD DUP3 PUSH2 0x1709 JUMP JUMPDEST PUSH2 0x17C7 DUP2 DUP6 PUSH2 0x1714 JUMP JUMPDEST SWAP4 POP PUSH2 0x17D2 DUP4 PUSH2 0x1725 JUMP JUMPDEST DUP1 PUSH1 0x0 JUMPDEST DUP4 DUP2 LT ISZERO PUSH2 0x180A JUMPI PUSH2 0x17E7 DUP3 PUSH2 0x1792 JUMP JUMPDEST PUSH2 0x17F1 DUP9 DUP3 PUSH2 0x1749 JUMP JUMPDEST SWAP8 POP PUSH2 0x17FC DUP4 PUSH2 0x17A5 JUMP JUMPDEST SWAP3 POP POP PUSH1 0x1 DUP2 ADD SWAP1 POP PUSH2 0x17D6 JUMP JUMPDEST POP DUP6 SWAP4 POP POP POP POP SWAP3 SWAP2 POP POP JUMP JUMPDEST PUSH1 0x0 PUSH1 0x20 DUP3 ADD SWAP1 POP DUP2 DUP2 SUB PUSH1 0x0 DUP4 ADD MSTORE PUSH2 0x1831 DUP2 DUP5 PUSH2 0x17B2 JUMP JUMPDEST SWAP1 POP SWAP3 SWAP2 POP POP JUMP JUMPDEST PUSH32 0x4F6E6C79206F776E65722063616E207465726D696E61746520726F756E640000 PUSH1 0x0 DUP3 ADD MSTORE POP JUMP JUMPDEST PUSH1 0x0 PUSH2 0x186F PUSH1 0x1E DUP4 PUSH2 0x147B JUMP JUMPDEST SWAP2 POP PUSH2 0x187A DUP3 PUSH2 0x1839 JUMP JUMPDEST PUSH1 0x20 DUP3 ADD SWAP1 POP SWAP2 SWAP1 POP JUMP JUMPDEST PUSH1 0x0 PUSH1 0x20 DUP3 ADD SWAP1 POP DUP2 DUP2 SUB PUSH1 0x0 DUP4 ADD MSTORE PUSH2 0x189E DUP2 PUSH2 0x1862 JUMP JUMPDEST SWAP1 POP SWAP2 SWAP1 POP JUMP JUMPDEST PUSH32 0x54696D6520746F207465726D696E6174652063757272656E7420726F756E6420 PUSH1 0x0 DUP3 ADD MSTORE PUSH32 0x686173206E6F74206265656E2072656163686564000000000000000000000000 PUSH1 0x20 DUP3 ADD MSTORE POP JUMP JUMPDEST PUSH1 0x0 PUSH2 0x1901 PUSH1 0x34 DUP4 PUSH2 0x147B JUMP JUMPDEST SWAP2 POP PUSH2 0x190C DUP3 PUSH2 0x18A5 JUMP JUMPDEST PUSH1 0x40 DUP3 ADD SWAP1 POP SWAP2 SWAP1 POP JUMP JUMPDEST PUSH1 0x0 PUSH1 0x20 DUP3 ADD SWAP1 POP DUP2 DUP2 SUB PUSH1 0x0 DUP4 ADD MSTORE PUSH2 0x1930 DUP2 PUSH2 0x18F4 JUMP JUMPDEST SWAP1 POP SWAP2 SWAP1 POP JUMP JUMPDEST PUSH1 0x0 DUP2 MLOAD SWAP1 POP SWAP2 SWAP1 POP JUMP JUMPDEST PUSH1 0x0 DUP3 DUP3 MSTORE PUSH1 0x20 DUP3 ADD SWAP1 POP SWAP3 SWAP2 POP POP JUMP JUMPDEST PUSH1 0x0 DUP2 SWAP1 POP PUSH1 0x20 DUP3 ADD SWAP1 POP SWAP2 SWAP1 POP JUMP JUMPDEST PUSH1 0x0 DUP2 MLOAD SWAP1 POP SWAP2 SWAP1 POP JUMP JUMPDEST PUSH1 0x0 DUP3 DUP3 MSTORE PUSH1 0x20 DUP3 ADD SWAP1 POP SWAP3 SWAP2 POP POP JUMP JUMPDEST PUSH1 0x0 DUP2 SWAP1 POP PUSH1 0x20 DUP3 ADD SWAP1 POP SWAP2 SWAP1 POP JUMP JUMPDEST PUSH1 0x0 PUSH1 0x20 DUP3 ADD SWAP1 POP SWAP2 SWAP1 POP JUMP JUMPDEST PUSH1 0x0 PUSH2 0x19A7 DUP3 PUSH2 0x1963 JUMP JUMPDEST PUSH2 0x19B1 DUP2 DUP6 PUSH2 0x196E JUMP JUMPDEST SWAP4 POP PUSH2 0x19BC DUP4 PUSH2 0x197F JUMP JUMPDEST DUP1 PUSH1 0x0 JUMPDEST DUP4 DUP2 LT ISZERO PUSH2 0x19ED JUMPI DUP2 MLOAD PUSH2 0x19D4 DUP9 DUP3 PUSH2 0x1749 JUMP JUMPDEST SWAP8 POP PUSH2 0x19DF DUP4 PUSH2 0x198F JUMP JUMPDEST SWAP3 POP POP PUSH1 0x1 DUP2 ADD SWAP1 POP PUSH2 0x19C0 JUMP JUMPDEST POP DUP6 SWAP4 POP POP POP POP SWAP3 SWAP2 POP POP JUMP JUMPDEST PUSH1 0x0 PUSH2 0x1A06 DUP4 DUP4 PUSH2 0x199C JUMP JUMPDEST SWAP1 POP SWAP3 SWAP2 POP POP JUMP JUMPDEST PUSH1 0x0 PUSH1 0x20 DUP3 ADD SWAP1 POP SWAP2 SWAP1 POP JUMP JUMPDEST PUSH1 0x0 PUSH2 0x1A26 DUP3 PUSH2 0x1937 JUMP JUMPDEST PUSH2 0x1A30 DUP2 DUP6 PUSH2 0x1942 JUMP JUMPDEST SWAP4 POP DUP4 PUSH1 0x20 DUP3 MUL DUP6 ADD PUSH2 0x1A42 DUP6 PUSH2 0x1953 JUMP JUMPDEST DUP1 PUSH1 0x0 JUMPDEST DUP6 DUP2 LT ISZERO PUSH2 0x1A7E JUMPI DUP5 DUP5 SUB DUP10 MSTORE DUP2 MLOAD PUSH2 0x1A5F DUP6 DUP3 PUSH2 0x19FA JUMP JUMPDEST SWAP5 POP PUSH2 0x1A6A DUP4 PUSH2 0x1A0E JUMP JUMPDEST SWAP3 POP PUSH1 0x20 DUP11 ADD SWAP10 POP POP PUSH1 0x1 DUP2 ADD SWAP1 POP PUSH2 0x1A46 JUMP JUMPDEST POP DUP3 SWAP8 POP DUP8 SWAP6 POP POP POP POP POP POP SWAP3 SWAP2 POP POP JUMP JUMPDEST PUSH1 0x0 PUSH1 0x40 DUP3 ADD SWAP1 POP DUP2 DUP2 SUB PUSH1 0x0 DUP4 ADD MSTORE PUSH2 0x1AAA DUP2 DUP6 PUSH2 0x1A1B JUMP JUMPDEST SWAP1 POP DUP2 DUP2 SUB PUSH1 0x20 DUP4 ADD MSTORE PUSH2 0x1ABE DUP2 DUP5 PUSH2 0x1A1B JUMP JUMPDEST SWAP1 POP SWAP4 SWAP3 POP POP POP JUMP JUMPDEST PUSH32 0x496E76616C696420757365720000000000000000000000000000000000000000 PUSH1 0x0 DUP3 ADD MSTORE POP JUMP JUMPDEST PUSH1 0x0 PUSH2 0x1AFD PUSH1 0xC DUP4 PUSH2 0x147B JUMP JUMPDEST SWAP2 POP PUSH2 0x1B08 DUP3 PUSH2 0x1AC7 JUMP JUMPDEST PUSH1 0x20 DUP3 ADD SWAP1 POP SWAP2 SWAP1 POP JUMP JUMPDEST PUSH1 0x0 PUSH1 0x20 DUP3 ADD SWAP1 POP DUP2 DUP2 SUB PUSH1 0x0 DUP4 ADD MSTORE PUSH2 0x1B2C DUP2 PUSH2 0x1AF0 JUMP JUMPDEST SWAP1 POP SWAP2 SWAP1 POP JUMP JUMPDEST PUSH32 0x546F74616C206275646765742063616E6E6F74206265206D6F7265207468616E PUSH1 0x0 DUP3 ADD MSTORE PUSH32 0x206F726967696E616C2062756467657400000000000000000000000000000000 PUSH1 0x20 DUP3 ADD MSTORE POP JUMP JUMPDEST PUSH1 0x0 PUSH2 0x1B8F PUSH1 0x30 DUP4 PUSH2 0x147B JUMP JUMPDEST SWAP2 POP PUSH2 0x1B9A DUP3 PUSH2 0x1B33 JUMP JUMPDEST PUSH1 0x40 DUP3 ADD SWAP1 POP SWAP2 SWAP1 POP JUMP JUMPDEST PUSH1 0x0 PUSH1 0x20 DUP3 ADD SWAP1 POP DUP2 DUP2 SUB PUSH1 0x0 DUP4 ADD MSTORE PUSH2 0x1BBE DUP2 PUSH2 0x1B82 JUMP JUMPDEST SWAP1 POP SWAP2 SWAP1 POP JUMP JUMPDEST PUSH32 0x496E76616C6964206E756D626572206F66207265736F757263657320746F2075 PUSH1 0x0 DUP3 ADD MSTORE PUSH32 0x7064617465000000000000000000000000000000000000000000000000000000 PUSH1 0x20 DUP3 ADD MSTORE POP JUMP JUMPDEST PUSH1 0x0 PUSH2 0x1C21 PUSH1 0x25 DUP4 PUSH2 0x147B JUMP JUMPDEST SWAP2 POP PUSH2 0x1C2C DUP3 PUSH2 0x1BC5 JUMP JUMPDEST PUSH1 0x40 DUP3 ADD SWAP1 POP SWAP2 SWAP1 POP JUMP JUMPDEST PUSH1 0x0 PUSH1 0x20 DUP3 ADD SWAP1 POP DUP2 DUP2 SUB PUSH1 0x0 DUP4 ADD MSTORE PUSH2 0x1C50 DUP2 PUSH2 0x1C14 JUMP JUMPDEST SWAP1 POP SWAP2 SWAP1 POP JUMP INVALID LOG2 PUSH5 0x6970667358 0x22 SLT KECCAK256 SELFBALANCE BYTE DIV 0xE9 MOD ISZERO 0x27 0xCE STATICCALL DUP3 MOD 0xCB SWAP16 PUSH15 0xC177B22A1DD8CC596FB1566AC8D8C9 PUSH16 0x371664736F6C63430008090033000000 "
		},
		"gasEstimates": {
			"creation": {
				"codeDepositCost": "1461800",
				"executionCost": "infinite",
				"totalCost": "infinite"
			},
			"external": {
				"budgetAllocation(uint256,uint256)": "infinite",
				"budgets(uint256)": "infinite",
				"makePurchase(uint256,uint256[][])": "infinite",
				"marketPrices(uint256)": "infinite",
				"resourcesRequestedPerUser(uint256,uint256,uint256)": "infinite",
				"subBudgetUpdate(uint256,uint256[])": "infinite",
				"terminateRound()": "infinite",
				"usersRequestedPerResource(uint256,uint256)": "infinite"
			}
		},
		"methodIdentifiers": {
			"budgetAllocation(uint256,uint256)": "9314f3a5",
			"budgets(uint256)": "69f0e05f",
			"makePurchase(uint256,uint256[][])": "32912553",
			"marketPrices(uint256)": "14aebade",
			"resourcesRequestedPerUser(uint256,uint256,uint256)": "a91f6b48",
			"subBudgetUpdate(uint256,uint256[])": "a0f2f71f",
			"terminateRound()": "9692b062",
			"usersRequestedPerResource(uint256,uint256)": "2ad04a62"
		}
	},
	"abi": [
		{
			"inputs": [
				{
					"internalType": "uint256[]",
					"name": "_links",
					"type": "uint256[]"
				},
				{
					"internalType": "uint256",
					"name": "_timeInterval",
					"type": "uint256"
				}
			],
			"stateMutability": "nonpayable",
			"type": "constructor"
		},
		{
			"anonymous": false,
			"inputs": [
				{
					"indexed": false,
					"internalType": "uint256[][]",
					"name": "bandwidthAllocated",
					"type": "uint256[][]"
				},
				{
					"indexed": false,
					"internalType": "uint256[][]",
					"name": "users",
					"type": "uint256[][]"
				}
			],
			"name": "AllocateBandwidth",
			"type": "event"
		},
		{
			"anonymous": false,
			"inputs": [
				{
					"indexed": false,
					"internalType": "uint256[]",
					"name": "prices",
					"type": "uint256[]"
				}
			],
			"name": "PriceUpdated",
			"type": "event"
		},
		{
			"inputs": [
				{
					"internalType": "uint256",
					"name": "",
					"type": "uint256"
				},
				{
					"internalType": "uint256",
					"name": "",
					"type": "uint256"
				}
			],
			"name": "budgetAllocation",
			"outputs": [
				{
					"internalType": "uint256",
					"name": "",
					"type": "uint256"
				}
			],
			"stateMutability": "view",
			"type": "function"
		},
		{
			"inputs": [
				{
					"internalType": "uint256",
					"name": "",
					"type": "uint256"
				}
			],
			"name": "budgets",
			"outputs": [
				{
					"internalType": "uint256",
					"name": "",
					"type": "uint256"
				}
			],
			"stateMutability": "view",
			"type": "function"
		},
		{
			"inputs": [
				{
					"internalType": "uint256",
					"name": "budget",
					"type": "uint256"
				},
				{
					"internalType": "uint256[][]",
					"name": "targetResources",
					"type": "uint256[][]"
				}
			],
			"name": "makePurchase",
			"outputs": [],
			"stateMutability": "payable",
			"type": "function"
		},
		{
			"inputs": [
				{
					"internalType": "uint256",
					"name": "",
					"type": "uint256"
				}
			],
			"name": "marketPrices",
			"outputs": [
				{
					"internalType": "uint256",
					"name": "",
					"type": "uint256"
				}
			],
			"stateMutability": "view",
			"type": "function"
		},
		{
			"inputs": [
				{
					"internalType": "uint256",
					"name": "",
					"type": "uint256"
				},
				{
					"internalType": "uint256",
					"name": "",
					"type": "uint256"
				},
				{
					"internalType": "uint256",
					"name": "",
					"type": "uint256"
				}
			],
			"name": "resourcesRequestedPerUser",
			"outputs": [
				{
					"internalType": "uint256",
					"name": "",
					"type": "uint256"
				}
			],
			"stateMutability": "view",
			"type": "function"
		},
		{
			"inputs": [
				{
					"internalType": "uint256",
					"name": "purchaseId",
					"type": "uint256"
				},
				{
					"internalType": "uint256[]",
					"name": "subBudgets",
					"type": "uint256[]"
				}
			],
			"name": "subBudgetUpdate",
			"outputs": [],
			"stateMutability": "nonpayable",
			"type": "function"
		},
		{
			"inputs": [],
			"name": "terminateRound",
			"outputs": [],
			"stateMutability": "nonpayable",
			"type": "function"
		},
		{
			"inputs": [
				{
					"internalType": "uint256",
					"name": "",
					"type": "uint256"
				},
				{
					"internalType": "uint256",
					"name": "",
					"type": "uint256"
				}
			],
			"name": "usersRequestedPerResource",
			"outputs": [
				{
					"internalType": "uint256",
					"name": "",
					"type": "uint256"
				}
			],
			"stateMutability": "view",
			"type": "function"
		}
	]
}